:020000040000FA
:0600000028EF3AF01200A7
:0600080004EF04F01200F9
:060018000CEF04F01200E1
:0608000028EF3AF012009F
:0608080028EF04F01200CD
:0608180017EF06F01200CC
:06082A000300A9750000A7
:10083000600000007200000081750000D20000001E
:1008400028000000D474000000010000AD0000008A
:10085000DACFE4FFE2CFDAFFE9CFE4FFEACFE4FF4B
:10086000F6CFE4FFF7CFE4FFF8CFE4FFF5CFE4FFE6
:10087000F3CFE4FFF4CFE4FFFACFE4FFFBCFE4FFD4
:1008800000EE1AF0140EE80403E3EECFE4FFFBD70A
:1008900000EE00F01A0EE80403E3EECFE4FFFBD70E
:1008A000E652F284010E000901E196D1D650000112
:1008B000626F636B0001200E621901E1635102E176
:1008C00000000000E90ED76EC20ED66E010EC26E99
:1008D000C282C2B2FED7C3502E6E2F6AC450FF0D23
:1008E0002E50F3240001726F2F50F4200001736F1B
:1008F000050EC26EC282C2B2FED7C3502E6E2F6AE0
:10090000C450FF0D2E50F3240001806F2F50F420AF
:100910000001816F80C02EF081C02FF0306A316AF3
:100920002FAE02D030683168820EE96E000EEA6E9A
:10093000EE502E240001826FEE502F200001836FB5
:10094000EE5030200001846FEE5031200001856FA1
:1009500072C02EF073C02FF0306A316A740EE96EE7
:10096000000EEA6EEE502E240001746FEE502F2020
:100970000001756FEE5030200001766FEE5031208F
:100980000001776F72C03AF073C03BF03C6A3D6A79
:1009900080C036F081C037F0386A396A37AE02D08D
:1009A0003868396836C020F037C021F038C022F0EE
:1009B00039C023F03AC025F03BC026F03CC027F0F8
:1009C0003DC028F0D1EC37F01CC032F01DC033F030
:1009D0001EC034F01FC035F032C020F033C021F00B
:1009E00034C022F035C023F0E1EC2CF021C02EF011
:1009F00022C02FF023C030F024C031F02EC026F0EA
:100A00002FC027F030C028F031C029F090C021F06D
:100A100091C022F092C023F093C024F0FBEC2CF0A4
:100A200021C090F022C091F023C092F024C093F036
:100A30000001602B000E61238B0EF66E740EF76EB4
:100A4000000EF86E0900F5CF2EF00800F5CF2FF05C
:100A5000000161512F18E8AE02D02F3404D02E507F
:100A6000605D2F5061592DE374C078F075C079F046
:100A700076C07AF077C07BF082C086F083C087F0C2
:100A800084C088F085C089F090C094F091C095F042
:100A900092C096F093C097F00001746B756B766B03
:100AA000776B0001826B836B846B856B0001906BAD
:100AB000916B926B936B0001010E646F0001606B90
:100AC000616B640E0001C9AF02D0D89003D0C85D3D
:100AD000000EC95936E30101010E611901E16251AD
:100AE00005E10001C62B000EC72308D001016151AA
:100AF000621104E10001C607000EC75B0001C75187
:100B00000001CB19E8AE02D0CB3507D0CA510001A5
:100B1000C65D0001CB510001C75905E3CAC0C6F04C
:100B2000CBC0C7F00BD00001C73504E2C6510008A6
:100B3000000EC75503E30001C66BC76B0001C86B0D
:100B4000C96B0001C82B000EC9230001CD51000163
:100B5000C719E8AE02D0C73507D0C6510001CC5D39
:100B60000001C7510001CD5902E3839601D083866D
:100B70000001CC2B000ECD230001CD510001CB197B
:100B8000E8AE02D0CB3507D0CA510001CC5D0001E0
:100B9000CB510001CD5903E30001CC6BCD6B0101BA
:100BA000010E751901E1765116E100016A2B000E64
:100BB0006B238A7EC80E00016BAF02D0D89003D0A1
:100BC0006A5D000E6B5906E30101756B766B0001DF
:100BD0006A6B6B6B01D08A9ED3EC16F0F294E552EF
:100BE00000EE19F01A0EE80403E3E5CFEDFFFBD7A2
:100BF00000EE2DF0140EE80403E3E5CFEDFFFBD784
:100C0000E5CFFBFFE5CFFAFFE5CFF4FFE5CFF3FF3C
:100C1000E5CFF5FFE5CFF8FFE5CFF7FFE5CFF6FF2E
:100C2000E5CFEAFFE5CFE9FFE5CFDAFF1100D8CF46
:100C3000E4FFE0CFE4FFE46EDACFE4FFE2CFDAFFD7
:100C4000E9CFE4FFEACFE4FFF6CFE4FFF7CFE4FF1C
:100C5000F8CFE4FFF5CFE4FFF3CFE4FFF4CFE4FFF8
:100C6000FACFE4FFFBCFE4FF00EE1AF0140EE80425
:100C700003E3EECFE4FFFBD700EE00F01A0EE8042A
:100C800003E3EECFE4FFFBD7E652000167051CE16A
:100C9000682B000E6923800E691509E1693504E2AD
:100CA0006851C808000E695502E38A860CD0D890B6
:100CB000695104E6A00E685D0F0E695903E3686B85
:100CC000696B01D08A9603D08A86686B696B64056C
:100CD00002E042EF0BF078C020F079C021F07AC03A
:100CE00022F07BC023F0DFEC2CF021C03EF022C0CC
:100CF0003FF023C040F024C041F097C126F098C1D6
:100D000027F099C128F09AC129F03EC021F03FC0D8
:100D100022F040C023F041C024F0E4EC2DF021C0CB
:100D20007CF022C07DF023C07EF024C07FF0266AD4
:100D3000276A480E286E440E296E7CC021F07DC0C3
:100D400022F07EC023F07FC024F02FEC2FF0010AA8
:100D500005E0010E0101636F646B03D00101636B59
:100D6000646B86C020F087C021F088C022F089C063
:100D700023F0DFEC2CF021C03EF022C03FF023C076
:100D800040F024C041F09BC126F09CC127F09DC1DA
:100D900028F09EC129F03EC021F03FC022F040C0A3
:100DA00023F041C024F0E4EC2DF021C08AF022C0F1
:100DB0008BF023C08CF024C08DF09FC126F0A0C121
:100DC00027F0A1C128F0A2C129F094C021F095C05C
:100DD00022F096C023F097C024F0E4EC2DF021C05F
:100DE00098F022C099F023C09AF024C09BF09CC0D8
:100DF00026F09DC027F09EC028F09FC029F098C023
:100E000021F099C022F09AC023F09BC024F026EC78
:100E10002FF0010A08E198C09CF099C09DF09AC09B
:100E20009EF09BC09FF00001675101E0D9D0A3C1A3
:100E300026F0A4C127F0A5C128F0A6C129F098C0CA
:100E400021F099C022F09AC023F09BC024F0E4EC7A
:100E50002DF021C03EF022C03FF023C040F024C05E
:100E600041F03EC026F03FC027F040C028F041C00E
:100E700029F0A4C021F0A5C022F0A6C023F0A7C08D
:100E800024F0FBEC2CF021C0A4F022C0A5F023C07C
:100E9000A6F024C0A7F0A7C126F0A8C127F0A9C1D9
:100EA00028F0AAC129F0A4C021F0A5C022F0A6C054
:100EB00023F0A7C024F0E4EC2DF021C0B2F022C052
:100EC000B3F023C0B4F024C0B5F0890EF66E740EF2
:100ED000F76E000EF86E0900F5CF44F00800F5CF6C
:100EE00045F08B0EF66E740EF76E000EF86E09006C
:100EF000F5CF42F00800F5CF43F042C022F043C0E6
:100F000023F044C027F045C028F051EC2EF0CCEC83
:100F10002CF021C03EF022C03FF023C040F024C09E
:100F200041F03EC026F03FC027F040C028F041C04D
:100F300029F0BAC021F0BBC022F0BCC023F0BDC074
:100F400024F0FBEC2CF021C0BAF022C0BBF023C08F
:100F5000BCF024C0BDF0BAC021F0BBC022F0BCC0C0
:100F600023F0BDC024F0EFEC2EF020C0B6F021C07D
:100F7000B7F022C0B8F023C0B9F0266AC80E276EB9
:100F8000AF0E286E480E296EA4C021F0A5C022F035
:100F9000A6C023F0A7C024F0E4EC2DF021C03EF061
:100FA00022C03FF023C040F024C041F0BAC026F078
:100FB000BBC027F0BCC028F0BDC029F03EC021F066
:100FC0003FC022F040C023F041C024F091EC2DF04E
:100FD00021C0A0F022C0A1F023C0A2F024C0A3F041
:100FE00001015F051EE10001BA6BBB6BBC6BBD6B01
:100FF000B66BB76BB86BB96BA06BA16BA26BA36B35
:101000009C6B9D6B9E6B9F6BA46BA56BA66BA76B7C
:10101000B26BB36BB46BB56B676B0101020E5F6FA4
:1010200008D0030E5F5D05E10001010E676F01014D
:101030005F6B050EE66EE66AE66A190EE66E010E55
:10104000E66EAEEC34F03E6E050EE15E3E50010EF3
:10105000E66EE66A7CC021F07DC022F07EC023F0FF
:101060007FC024F0EFEC2EF020C03EF021C03FF016
:1010700022C040F023C041F03EC0E6FF3FC0E6FF83
:1010800040C0E6FF41C0E6FF14EC12F0426E060ECF
:10109000E15E4250F3CFADF1F4CFAEF1ADC1E6FF6A
:1010A000AEC1E6FF190EE66E010EE66E08EC35F0F5
:1010B000E552E552E552E552060EE66EE66AE66A4C
:1010C0001E0EE66E010EE66EAEEC34F03E6E050EC0
:1010D000E15E3E50020EE66EE66A8AC021F08BC0E9
:1010E00022F08CC023F08DC024F0EFEC2EF020C055
:1010F0003EF021C03FF022C040F023C041F03EC08E
:10110000E6FF3FC0E6FF40C0E6FF41C0E6FF14EC4B
:1011100012F0426E060EE15E4250F3CFAFF1F4CF13
:10112000B0F1AFC1E6FFB0C1E6FF1E0EE66E010EE4
:10113000E66E08EC35F0E552E552E552E552060E52
:10114000E66EE66AE66A240EE66E010EE66EAEEC28
:1011500034F03E6E050EE15E3E50010EE66EE66A2C
:1011600098C021F099C022F09AC023F09BC024F0CF
:10117000EFEC2EF020C03EF021C03FF022C040F046
:1011800023C041F03EC0E6FF3FC0E6FF40C0E6FF9F
:1011900041C0E6FF14EC12F0426E060EE15E4250D2
:1011A000F3CFB1F1F4CFB2F1B1C1E6FFB2C1E6FFC6
:1011B000240EE66E010EE66E08EC35F0E552E552BF
:1011C000E552E5520001675101E056D2060EE66E87
:1011D000E66AE66A300EE66E010EE66EAEEC34F0BC
:1011E0003E6E050EE15E3E50010EE66EE66A9CC064
:1011F00021F09DC022F09EC023F09FC024F0EFECB0
:101200002EF020C03EF021C03FF022C040F023C0AD
:1012100041F03EC0E6FF3FC0E6FF40C0E6FF41C0F0
:10122000E6FF14EC12F0426E060EE15E4250F3CF80
:10123000B3F1F4CFB4F1B3C1E6FFB4C1E6FF300EB1
:10124000E66E010EE66E08EC35F0E552E552E55229
:10125000E552060EE66EE66AE66A2A0EE66E010EB4
:10126000E66EAEEC34F03E6E050EE15E3E50010ED1
:10127000E66EE66AA0C021F0A1C022F0A2C023F071
:10128000A3C024F0EFEC2EF020C03EF021C03FF0D0
:1012900022C040F023C041F03EC0E6FF3FC0E6FF61
:1012A00040C0E6FF41C0E6FF14EC12F0426E060EAD
:1012B000E15E4250F3CFB5F1F4CFB6F1B5C1E6FF30
:1012C000B6C1E6FF2A0EE66E010EE66E08EC35F0BA
:1012D000E552E552E552E552080EE66EE66AE66A28
:1012E000360EE66E010EE66EAEEC34F03E6E050E86
:1012F000E15E3E50020EE66EE66AA4C021F0A5C093
:1013000022F0A6C023F0A7C024F0EFEC2EF020C0FE
:101310003EF021C03FF022C040F023C041F03EC06B
:10132000E6FF3FC0E6FF40C0E6FF41C0E6FF14EC29
:1013300012F0426E060EE15E4250F3CFB7F1F4CFE9
:10134000B8F1B7C1E6FFB8C1E6FF360EE66E010E92
:10135000E66E08EC35F0E552E552E552E552266AB4
:10136000500E276EC30E286E470E296EA4C021F0C2
:10137000A5C022F0A6C023F0A7C024F02FEC2FF0C8
:10138000010A43E0266A276A200E286E410E296E64
:10139000A4C021F0A5C022F0A6C023F0A7C024F06D
:1013A00091EC2DF021C0A8F022C0A9F023C0AAF032
:1013B00024C0ABF0010E0001AC6FAD6BE66EE66AC7
:1013C000A8C021F0A9C022F0AAC023F0ABC024F02D
:1013D000EFEC2EF020C03EF021C03FF022C040F0E4
:1013E00023C041F03EC0E6FF3FC0E6FF40C0E6FF3D
:1013F00041C0E6FF14EC12F0426E060EE15E425070
:10140000F3CFB7F1F4CFB8F198D0266A276A7A0EF5
:10141000286E440E296EA4C021F0A5C022F0A6C0FB
:1014200023F0A7C024F02FEC2FF0010A44E0266A35
:10143000276A200E286E410E296EA4C021F0A5C097
:1014400022F0A6C023F0A7C024F091EC2DF021C01B
:10145000A8F022C0A9F023C0AAF024C0ABF0010E6E
:101460000001AC6FAD6B020EE66EE66AA8C021F01B
:10147000A9C022F0AAC023F0ABC024F0EFEC2EF0FC
:1014800020C03EF021C03FF022C040F023C041F018
:101490003EC0E6FF3FC0E6FF40C0E6FF41C0E6FFBA
:1014A00014EC12F0426E060EE15E4250F3CFB7F13B
:1014B000F4CFB8F142D0266A276AC80E286E420ED1
:1014C000296EA4C021F0A5C022F0A6C023F0A7C0B9
:1014D00024F0E4EC2DF021C0A8F022C0A9F023C034
:1014E000AAF024C0ABF00001AC6BAD6B020EE66E4F
:1014F000E66AA8C021F0A9C022F0AAC023F0ABC0C0
:1015000024F0EFEC2EF020C03EF021C03FF022C0CE
:1015100040F023C041F03EC0E6FF3FC0E6FF40C0C0
:10152000E6FF41C0E6FF14EC12F0426E060EE15EEB
:101530004250F3CFB7F1F4CFB8F1B7C1E6FFB8C16D
:10154000E6FF3E0EE66E010EE66E08EC35F0E55263
:10155000E552E552E552B6C0E6FFB7C0E6FFB8C0B7
:10156000E6FFB9C0E6FF36EC14F0E552E552E5526D
:10157000E552F3CFBDF1F4CFBEF1BDC1E6FFBEC170
:10158000E6FF4F0EE66E010EE66E08EC35F0E55212
:10159000E552E552E552090EE66EE66AE66A460E47
:1015A000E66E010EE66EAEEC34F03E6E050EE15EC8
:1015B0003E50B6C0E6FFB7C0E6FFB8C0E6FFB9C010
:1015C000E6FFE3EC15F0E552E552E552E552F3CFC4
:1015D000BBF1F4CFBCF1BBC1E6FFBCC1E6FF460ED8
:1015E000E66E010EE66E08EC35F0E552E552E55286
:1015F000E552080EE66EE66AE66A570EE66E010EE2
:10160000E66EAEEC34F03E6E050EE15E3E50020E2C
:10161000E66EE66AB2C021F0B3C022F0B4C023F097
:10162000B5C024F0EFEC2EF020C03EF021C03FF01A
:1016300022C040F023C041F03EC0E6FF3FC0E6FFBD
:1016400040C0E6FF41C0E6FF14EC12F0426E060E09
:10165000E15E4250F3CFB9F1F4CFBAF1B9C1E6FF80
:10166000BAC1E6FF570EE66E010EE66E08EC35F0E5
:10167000E552E552E552E5520001646B010E0101AD
:101680006D6F6E6B0101010E6D1901E16E5102E08B
:101690005BEF11F0400EE66E6FEC38F0E5529EEC19
:1016A00039F0000901E0FBD701018F5101E07AD048
:1016B000BD0EE66E6E0EE66E000EE66E09EC38F0BC
:1016C000E552E552E5529EEC39F0000901E0FBD706
:1016D0003E0EE66E010EE66E42EC35F0E552E55246
:1016E000F3CFD0F0F4CFD1F00001BE6BBF6BD0C010
:1016F0003EF0D1C03FF0070ED8803E56000E3F5658
:10170000BF513F18E8AE02D03F3404D03E50BE5D1A
:101710003F50BF590FE2200EE66EBFEC38F0E552A5
:101720009EEC39F0000901E0FBD70001BE2B000E52
:10173000BF23DDD73E0EE66E010EE66E0DEC39F0EE
:10174000E552E5529EEC39F0000901E0FBD70001BB
:10175000AC51AD110CE1C50EE66E6E0EE66E000EDC
:10176000E66E09EC38F0E552E552E5520BD0C80EB2
:10177000E66E6E0EE66E000EE66E09EC38F0E5528F
:10178000E552E5529EEC39F0000901E0FBD7200E4E
:10179000E66EBFEC38F0E5529EEC39F0000901E04E
:1017A000FBD710D0040EE66E6F0EE66E000EE66EEE
:1017B00009EC38F0E552E552E5529EEC39F00009AB
:1017C00001E0FBD7080E0101711901E1725101E13D
:1017D000D5D2070E711901E1725101E16BD2060EEB
:1017E000711901E1725101E101D2050E711901E196
:1017F000725101E197D1040E711901E1725101E1B9
:101800002DD1030E711901E1725101E1D3D0020E05
:10181000711901E172516AE0010E711901E1725111
:1018200001E06AD332EC16F0E90EE66E6E0EE66E5B
:10183000000EE66E09EC38F0E552E552E5529EECFA
:1018400039F0000901E0FBD7570EE66E010EE66E97
:1018500042EC35F0E552E552F3CFD0F0F4CFD1F0C1
:101860000001BE6BBF6BD0C03EF0D1C03FF0080E90
:10187000D8803E56000E3F56BF513F18E8AE02D00A
:101880003F3404D03E50BE5D3F50BF590FE2200EA2
:10189000E66EBFEC38F0E5529EEC39F0000901E04D
:1018A000FBD70001BE2B000EBF23DDD7570EE66E1F
:1018B000010EE66E0DEC39F0E552E5529EEC39F082
:1018C000000901E0FBD7F00EE66E6E0EE66E000E2C
:1018D000E66E09EC38F0E552E552E5529EEC39F03F
:1018E000000901E0FBD750EC16F023D332EC16F0E0
:1018F000A60EE66E6E0EE66E000EE66E09EC38F091
:10190000E552E552E5529EEC39F0000901E0FBD7C3
:10191000240EE66E010EE66E42EC35F0E552E5521D
:10192000F3CFD0F0F4CFD1F00001BE6BBF6BD0C0CD
:101930003EF0D1C03FF0080ED8803E56000E3F5614
:10194000BF513F18E8AE02D03F3404D03E50BE5DD8
:101950003F50BF590FE2200EE66EBFEC38F0E55263
:101960009EEC39F0000901E0FBD70001BE2B000E10
:10197000BF23DDD7240EE66E010EE66E0DEC39F0C6
:10198000E552E5529EEC39F0000901E0FBD7BB0EB1
:10199000E66E6E0EE66E000EE66E09EC38F0E5526D
:1019A000E552E5529EEC39F0000901E0FBD750EC1E
:1019B00016F0BFD23CEC16F0DD0EE66E6E0EE66E53
:1019C000000EE66E09EC38F0E552E552E5529EEC69
:1019D00039F0000901E0FBD74F0EE66E010EE66E0E
:1019E00042EC35F0E552E552F3CFD0F0F4CFD1F030
:1019F0000001BE6BBF6BD0C03EF0D1C03FF00A0EFD
:101A0000D8803E56000E3F56BF513F18E8AE02D078
:101A10003F3404D03E50BE5D3F50BF590FE2200E10
:101A2000E66EBFEC38F0E5529EEC39F0000901E0BB
:101A3000FBD70001BE2B000EBF23DDD74F0EE66E95
:101A4000010EE66E0DEC39F0E552E5529EEC39F0F0
:101A5000000901E0FBD750EC16F06BD232EC16F027
:101A6000AD0EE66E6E0EE66E000EE66E09EC38F018
:101A7000E552E552E5529EEC39F0000901E0FBD752
:101A8000300EE66E010EE66E42EC35F0E552E552A0
:101A9000F3CFD0F0F4CFD1F00001BE6BBF6BD0C05C
:101AA0003EF0D1C03FF0080ED8803E56000E3F56A3
:101AB000BF513F18E8AE02D03F3404D03E50BE5D67
:101AC0003F50BF590FE2200EE66EBFEC38F0E552F2
:101AD0009EEC39F0000901E0FBD70001BE2B000E9F
:101AE000BF23DDD7300EE66E010EE66E0DEC39F049
:101AF000E552E5529EEC39F0000901E0FBD7BB0E40
:101B0000E66E6E0EE66E000EE66E09EC38F0E552FB
:101B1000E552E5529EEC39F0000901E0FBD750ECAC
:101B200016F007D232EC16F0B40EE66E6E0EE66ECC
:101B3000000EE66E09EC38F0E552E552E5529EECF7
:101B400039F0000901E0FBD72A0EE66E010EE66EC1
:101B500042EC35F0E552E552F3CFD0F0F4CFD1F0BE
:101B60000001BE6BBF6BD0C03EF0D1C03FF0080E8D
:101B7000D8803E56000E3F56BF513F18E8AE02D007
:101B80003F3404D03E50BE5D3F50BF590FE2200E9F
:101B9000E66EBFEC38F0E5529EEC39F0000901E04A
:101BA000FBD70001BE2B000EBF23DDD72A0EE66E49
:101BB000010EE66E0DEC39F0E552E5529EEC39F07F
:101BC000000901E0FBD7BB0EE66E6E0EE66E000E5E
:101BD000E66E09EC38F0E552E552E5529EEC39F03C
:101BE000000901E0FBD750EC16F0A3D132EC16F05F
:101BF000CC0EE66E6E0EE66E000EE66E09EC38F068
:101C0000E552E552E5529EEC39F0000901E0FBD7C0
:101C1000190EE66E010EE66E42EC35F0E552E55225
:101C2000F3CFD0F0F4CFD1F00001BE6BBF6BD0C0CA
:101C30003EF0D1C03FF0080ED8803E56000E3F5611
:101C4000BF513F18E8AE02D03F3404D03E50BE5DD5
:101C50003F50BF590FE2200EE66EBFEC38F0E55260
:101C60009EEC39F0000901E0FBD70001BE2B000E0D
:101C7000BF23DDD7190EE66E010EE66E0DEC39F0CE
:101C8000E552E5529EEC39F0000901E0FBD7D30E96
:101C9000E66E6E0EE66E000EE66E09EC38F0E5526A
:101CA000E552E5529EEC39F0000901E0FBD750EC1B
:101CB00016F03FD13CEC16F0D50EE66E6E0EE66ED9
:101CC000000EE66E09EC38F0E552E552E5529EEC66
:101CD00039F0000901E0FBD71E0EE66E010EE66E3C
:101CE00042EC35F0E552E552F3CFD0F0F4CFD1F02D
:101CF0000001BE6BBF6BD0C03EF0D1C03FF0080EFC
:101D0000D8803E56000E3F56BF513F18E8AE02D075
:101D10003F3404D03E50BE5D3F50BF590FE2200E0D
:101D2000E66EBFEC38F0E5529EEC39F0000901E0B8
:101D3000FBD70001BE2B000EBF23DDD71E0EE66EC3
:101D4000010EE66E0DEC39F0E552E5529EEC39F0ED
:101D5000000901E0FBD7DB0EE66E6E0EE66E000EAC
:101D6000E66E09EC38F0E552E552E5529EEC39F0AA
:101D7000000901E0FBD750EC16F0DBD077C121F071
:101D800078C122F079C123F07AC124F0C0EC2EF0A2
:101D9000CCEC2CF021C044F022C045F023C046F02A
:101DA00024C047F044C026F045C027F046C028F0C4
:101DB00047C029F077C121F078C122F079C123F022
:101DC0007AC124F0FAEC2CF021C040F022C041F09E
:101DD00023C042F024C043F0266A276A200E286EF2
:101DE000410E296E40C021F041C022F042C023F0D4
:101DF00043C024F0E4EC2DF0C0EC2EF022C03EF005
:101E000023C03FF03EC0E6FF3FC0E6FF77C121F0B0
:101E100078C122F079C123F07AC124F0C0EC2EF011
:101E200022C048F023C049F048C0E6FF49C0E6FFA1
:101E3000C70EE66E740EE66E000EE66E6C0EE66E73
:101E4000000EE66E6CEC36F04A6E090EE15E4A500A
:101E500032EC16F0FC0EE66E6E0EE66E000EE66ECE
:101E600009EC38F0E552E552E5529EEC39F00009F4
:101E700001E0FBD76C0EE66E000EE66E42EC35F02C
:101E8000E552E552F3CFD0F0F4CFD1F00001BE6BB4
:101E9000BF6BD0C03EF0D1C03FF0070ED8803E5699
:101EA000000E3F56BF513F18E8AE02D03F3404D079
:101EB0003E50BE5D3F50BF590FE2200EE66EBFECB4
:101EC00038F0E5529EEC39F0000901E0FBD7000143
:101ED000BE2B000EBF23DDD76C0EE66E000EE66E45
:101EE0000DEC39F0E552E5529EEC39F0000901E0C5
:101EF000FBD750EC16F01DD0030EE66E6FEC38F0F9
:101F0000E5529EEC39F0000901E0FBD7F20EE66ED7
:101F10006E0EE66E000EE66E09EC38F0E552E55204
:101F2000E5529EEC39F0000901E0FBD750EC16F0C9
:101F300000D0020E0101101901E1115101E1A0D1FF
:101F4000010E101901E1115101E186D0105101E19A
:101F5000115101E0A4D182EC30F0266A276A100EFC
:101F6000286E410E296E98C021F099C022F09AC0C7
:101F700023F09BC024F026EC2FF0010A10E0E66A63
:101F8000050EE66E60EC30F0E552E552800EE66E2E
:101F9000040EE66E60EC30F0E552E5525CD0266A45
:101FA000276AC60E286E420E296E98C021F099C08D
:101FB00022F09AC023F09BC024F026EC2FF0010AF7
:101FC00027E0266A276A200E286E410E296E98C0E7
:101FD00021F099C022F09AC023F09BC024F091EC2C
:101FE0002DF0C0EC2EF022C03EF023C03FF03EC0EA
:101FF000E6FF3FC0E6FF36EC31F0E552E552800ED9
:10200000E66E040EE66E60EC30F0E552E55223D049
:10201000040EE66EE66A266A276A200E286E410ED6
:10202000296E98C021F099C022F09AC023F09BC07D
:1020300024F091EC2DF0C0EC2EF022C03EF023C035
:102040003FF03EC0E6FF3FC0E6FFDDEC31F0E55279
:10205000E552E552E5522CD10001675101E00FD164
:1020600082EC30F0266A276AC80E286E420E296E6E
:10207000A4C021F0A5C022F0A6C023F0A7C024F080
:10208000E4EC2DF021C03EF022C03FF023C040F030
:1020900024C041F0266A276A800E286E3F0E296E02
:1020A0003EC021F03FC022F040C023F041C024F0E8
:1020B0002FEC2FF0010A17E1E66A050EE66E60ECE0
:1020C00030F0E552E552E66A040EE66E60EC30F060
:1020D000E552E552800EE66E030EE66E60EC30F0DF
:1020E000E552E552CCD0266A276AC80E286E420E09
:1020F000296EA4C021F0A5C022F0A6C023F0A7C07D
:1021000024F0E4EC2DF021C03EF022C03FF023C0CB
:1021100040F024C041F0266A276A200E286E410E46
:10212000296E3EC021F03FC022F040C023F041C0E4
:1021300024F02FEC2FF0010A2EE1266A276AC80E40
:10214000286E420E296EA4C021F0A5C022F0A6C0C0
:1021500023F0A7C024F0E4EC2DF0C0EC2EF022C058
:102160003EF023C03FF03EC0E6FF3FC0E6FF36EC46
:1021700031F0E552E552E66A040EE66E60EC30F0AE
:10218000E552E552800EE66E030EE66E60EC30F02E
:10219000E552E55274D0266A276AC80E286E420EB0
:1021A000296EA4C021F0A5C022F0A6C023F0A7C0CC
:1021B00024F0E4EC2DF021C03EF022C03FF023C01B
:1021C00040F024C041F0266A276AC60E286E420EEF
:1021D000296E3EC021F03FC022F040C023F041C034
:1021E00024F02FEC2FF0010A27E1266A276AC80E97
:1021F000286E420E296EA4C021F0A5C022F0A6C010
:1022000023F0A7C024F0E4EC2DF0C0EC2EF022C0A7
:102210003EF023C03FF03EC0E6FF3FC0E6FF36EC95
:1022200031F0E552E552800EE66E030EE66E60EC8C
:1022300030F0E552E55223D0030EE66EE66A266AD8
:10224000276AC80E286E420E296EA4C021F0A5C0D0
:1022500022F0A6C023F0A7C024F0E4EC2DF0C0ECDF
:102260002EF022C03EF023C03FF03EC0E6FF3FC04C
:10227000E6FFDDEC31F0E552E552E552E55218D0CB
:1022800082EC30F0CEC0E6FFCFC0E6FF36EC31F096
:10229000E552E5520001CE2B000ECF2309D010C12C
:1022A000E6FF11C1E6FF36EC31F0E552E55200D011
:1022B00001016D6B6E6B070ECA6E9E92F28CE55239
:1022C00000EE19F01A0EE80403E3E5CFEDFFFBD7AB
:1022D00000EE2DF0140EE80403E3E5CFEDFFFBD78D
:1022E000E5CFFBFFE5CFFAFFE5CFF4FFE5CFF3FF46
:1022F000E5CFF5FFE5CFF8FFE5CFF7FFE5CFF6FF38
:10230000E5CFEAFFE5CFE9FFE5CFDAFFE550E5CF1E
:10231000E0FFE5CFD8FF100006D8D9EC1EF0C1ECE5
:1023200021F0FDD712000F0EC11293EC21F081EFC6
:1023300016F01200120012001200120012001E0EFF
:10234000E66E010EE66EB4EC1DF0E552E552400E6D
:10235000E66E400EE66E050EE66EE66A010EE66E6D
:102360003AEC1EF0006E050EE15E0050F3CF92F1E4
:10237000F4CF93F112006D840101080EE26F070E95
:10238000E36FE207000EE35BE251E311FAE16D94C3
:102390001200D9CFE6FFE1CFD9FFFD0EDBCF22F04F
:1023A000FE0EDBCF23F0010E221801E1235033E0B3
:1023B000E868221802E1E86823182BE0030E2218CF
:1023C00001E1235024E0040E221801E123501DE016
:1023D000020E221801E1235016E0170E221801E127
:1023E00023500FE0160E221801E1235008E0150ECD
:1023F000221801E1235001E010D0A1DF0FD09EDFB1
:102400000DD09BDF0BD097DF09D093DF07D092DF91
:1024100005D092DF03D0000001D000D0010E00D023
:10242000E552E7CFD9FF1200D9CFE6FFE1CFD9FFC0
:10243000C30EE66E010EE66ED950FB0FE96EFF0E7D
:10244000DA20EA6EEECFE6FFEECFE6FFEECFE6FF54
:10245000EFCFE6FFD9EC33F0006E060EE15E0050E0
:10246000C30EE66E010EE66E42EC35F0E552E55223
:10247000F3CFD0F0F4CFD1F00001010ED01901E17B
:10248000D15133E1150EE66E6F0EE66E000EE66E6C
:10249000CD0EE66E010EE66E29EC35F0006E050EEF
:1024A000E15E0050150EE66E6F0EE66E000EE66EF3
:1024B000CD0EE66E010EE66EECEC34F0006E050E0D
:1024C000E15E0050C30EE66E010EE66ECD0EE66EC6
:1024D000010EE66EC8EC34F0E552E552E552E552E5
:1024E000030E0001D06FD16B15D1020ED01901E19E
:1024F000D15101E090D0C3C102F0036A02BE03686B
:1025000002C0E6FF03C0E6FF93EC37F0E552E55268
:10251000F3CF00F0F4CF01F00050011023E1150ECD
:10252000E66E6F0EE66E000EE66ECD0EE66E010EE6
:10253000E66E29EC35F0006E050EE15E0050C30E2C
:10254000E66E010EE66ECD0EE66E010EE66EC8EC8E
:1025500034F0E552E552E552E552030E0001D06F2A
:10256000D16B58D00101C40EC16F010EC26F190E9C
:10257000E66E6F0EE66E000EE66ECD0EE66E010E96
:10258000E66E29EC35F0006E050EE15E0050010E9E
:10259000E66EE66AC30EE66E010EE66ECD0EE66EE0
:1025A000010EE66E50EC35F0006E060EE15E005056
:1025B000150EE66E6F0EE66E000EE66ECD0EE66E42
:1025C000010EE66EECEC34F0006E050EE15E00509C
:1025D000150EE66E6F0EE66E000EE66ECD0EE66E22
:1025E000010EE66EECEC34F0006E050EE15E00507C
:1025F000C1C1E6FFC2C1E6FFCD0EE66E010EE66E7A
:10260000C8EC34F0E552E552E552E552040E000103
:10261000D06FD16B7FD0030ED01901E1D1516CE1A5
:10262000C3C102F0036A02BE036802C0E6FF03C032
:10263000E6FF93EC37F0E552E552F3CF00F0F4CF2C
:1026400001F0005001100FE1C30EE66E010EE66EC0
:10265000CD0EE66E010EE66E08EC35F0E552E55261
:10266000E552E55248D00101C40EC16F010EC26FA0
:10267000190EE66E6F0EE66E000EE66ECD0EE66E7D
:10268000010EE66E29EC35F0006E050EE15E00509D
:10269000010EE66EE66AC30EE66E010EE66ECD0E24
:1026A000E66E010EE66E50EC35F0006E060EE15E51
:1026B0000050150EE66E6F0EE66E000EE66ECD0E45
:1026C000E66E010EE66EECEC34F0006E050EE15E97
:1026D0000050C1C1E6FFC2C1E6FFCD0EE66E010E9D
:1026E000E66EC8EC34F0E552E552E552E552040ED0
:1026F0000001D06FD16B0ED0C30EE66E010EE66EF8
:10270000CD0EE66E010EE66E08EC35F0E552E552B0
:10271000E552E552D0C0C1F1D1C0C2F10101020EB3
:10272000C15F000EC25BCD0EC127010EC223190E80
:10273000E66E6F0EE66E000EE66ED70EE66E010ECA
:10274000E66E29EC35F0006E050EE15E0050D0C05B
:1027500000F0D1C001F0020E005E000E015A00C070
:10276000E6FF01C0E6FFCD0EE66E010EE66ED70E67
:10277000E66E010EE66E50EC35F0026E060EE15E7E
:102780000250D950F90FE96EFF0EDA20EA6E010E01
:10279000EE1801E1ED5021E1170EE66E6F0EE66EC8
:1027A000000EE66ED70EE66E010EE66EECEC34F02F
:1027B000006E050EE15E0050010EE66EE66AC1C1D4
:1027C000E6FFC2C1E6FFD70EE66E010EE66E50ECE4
:1027D00035F0006E060EE15E0050D950F90FE96E3B
:1027E000FF0EDA20EA6E020EEE1801E1ED5021E153
:1027F000170EE66E6F0EE66E000EE66ED70EE66EF4
:10280000010EE66EECEC34F0006E050EE15E005059
:10281000020EE66EE66AC1C1E6FFC2C1E6FFD70E50
:10282000E66E010EE66E50EC35F0006E060EE15ECF
:102830000050190EE66E6F0EE66E000EE66ED70EB5
:10284000E66E010EE66EECEC34F0006E050EE15E15
:102850000050D70E006E010E016E00C0F3FF01C0E4
:10286000F4FF00D0E552E7CFD9FF1200D9CFE6FF41
:10287000E1CFD9FF150EE126DE6ADE6ADE6ADD6A87
:10288000DD52DD52040EDB6A050EDB6A060EDB6AE2
:10289000070EDB6AFB0EDBCF20F0FC0EDBCF21F056
:1028A000FD0EDBCF22F0FE0EDBCF23F0100E256EE7
:1028B0000E0E266E276A286A34EC39F020C0DEFF3F
:1028C00021C0DEFF22C0DEFF23C0DDFFDD52DD526E
:1028D000D9CFE9FFDACFEAFFEECF00F0EECF01F07B
:1028E000EECF02F0EFCF03F0100E256E0E0E266E27
:1028F000276A286A00C020F001C021F002C022F03F
:1029000003C023F0D1EC37F01CC000F01DC001F073
:102910001EC002F01FC003F0D950FB0FE96EFF0E7E
:10292000DA20EA6E0050EE5C206E0150EE58216E07
:102930000250EE58226E0350EE58236E3C0E256E68
:10294000266A276A286A34EC39F0040E20C0DBFFBF
:10295000050E21C0DBFFD9CFE9FFDACFEAFFEECFCA
:1029600008F0EECF09F0EECF0AF0EFCF0BF0100E2B
:10297000256E0E0E266E276A286A08C020F009C050
:1029800021F00AC022F00BC023F0D1EC37F01CC0BC
:1029900008F01DC009F01EC00AF01FC00BF0D9508E
:1029A000FB0FE96EFF0EDA20EA6E0850EE5C046E53
:1029B0000950EE58056E0A50EE58066E0B50EE5850
:1029C000076E040EDBCF0CF0050EDBCF0DF03C0ED6
:1029D0000D02F3CF0DF00C02F3CF0CF0F4500D26E6
:1029E0000E6A0F6A0DAE02D00E680F680C50045CC0
:1029F000006E0D500558016E0E500658026E0F50B5
:102A00000758036E060E00C0DBFF070E01C0DBFF98
:102A1000D950080FE66E000EDA20E66ED9CFE9FF36
:102A2000DACFEAFFEECFE6FFEECFE6FFEECFE6FF2E
:102A3000EFCFE6FFD9EC33F0006E060EE15E0050FA
:102A4000D9500F0FE66E000EDA20E66E040EDBCFD3
:102A500000F0050EDBCF01F0026A036A01AE02D07E
:102A60000268036800C0E6FF01C0E6FF02C0E6FF9F
:102A700003C0E6FFD9EC33F0046E060EE15E0450AD
:102A8000D950120FE66E000EDA20E66E060EDBCF8E
:102A900000F0070EDBCF01F0026A036A01AE02D03C
:102AA0000268036800C0E6FF01C0E6FF02C0E6FF5F
:102AB00003C0E6FFD9EC33F0046E060EE15E04506D
:102AC000190EE66E6F0EE66E000EE66ECD0EE66E29
:102AD000010EE66E29EC35F0006E050EE15E005049
:102AE000D950080FE66E000EDA20E66ECD0EE66EC7
:102AF000010EE66EC8EC34F0E552E552E552E552BF
:102B0000E70EE66E6E0EE66E000EE66ECD0EE66E1B
:102B1000010EE66EECEC34F0006E050EE15E005046
:102B2000D9500F0FE66E000EDA20E66ECD0EE66E7F
:102B3000010EE66EC8EC34F0E552E552E552E5527E
:102B4000E50EE66E6E0EE66E000EE66ECD0EE66EDD
:102B5000010EE66EECEC34F0006E050EE15E005006
:102B6000D950120FE66E000EDA20E66ECD0EE66E3C
:102B7000010EE66EC8EC34F0E552E552E552E5523E
:102B8000E30EE66E6E0EE66E000EE66ECD0EE66E9F
:102B9000010EE66EECEC34F0006E050EE15E0050C6
:102BA000CD0E006E010E016E00C0F3FF01C0F4FFF8
:102BB000150EE15C03E200D0E16AE552E16EE552F8
:102BC000E7CFD9FF1200D9CFE6FFE1CFD9FFC30E7F
:102BD000E66E010EE66ED950FB0FE96EFF0EDA20AD
:102BE000EA6EEECFE6FFEECFE6FFEECFE6FFEFCFE9
:102BF000E6FFD9EC33F0006E060EE15E0050190ED0
:102C0000E66E6F0EE66E000EE66ECD0EE66E010EFF
:102C1000E66E29EC35F0006E050EE15E0050C30E45
:102C2000E66E010EE66ECD0EE66E010EE66EC8ECA7
:102C300034F0E552E552E552E552CD0E006E010E3C
:102C4000016E00C0F3FF01C0F4FF00D0E552E7CFF2
:102C5000D9FF1200D9CFE6FFE1CFD9FFE552E7CF88
:102C6000D9FF1200E66A6FEC38F0E5529EEC39F0BD
:102C7000000901E0FBD71200E66A6FEC38F0E5527C
:102C80009EEC39F0000901E0FBD7200EE66EBFECA8
:102C900038F0E5529EEC39F0000901E0FBD7120054
:102CA0007BEC39F00101BF6FC06B0001BE6BBF6BE5
:102CB000BFC100F0C0C101F0100ED8800056000E58
:102CC0000156BF510118E8AE02D0013404D00050C3
:102CD000BE5D0150BF590FE29EEC39F0000901E0E2
:102CE000FBD7200EE66EBFEC38F0E5520001BE2B9C
:102CF000000EBF23DDD79EEC39F0000901E0FBD7C1
:022D00001200BF
:0E2D0200D9CFE6FFE1CFD9FFE6526A6A686AD0
:102D10006D8C6D9C6E6A000EE66EE66AE66A710E58
:102D2000E66E0F0EE66EAEEC34F0006E050EE15E60
:102D30000050DF6ADF50006E016A040E005C000E76
:102D4000015810E2DF50040DF3CFE9FFF4CFEAFFA2
:102D5000000EE926040EEA22EE6AEE6AEE6AEE6AD8
:102D6000DF2AE8D7160E706E68A60CD0030EE66E4A
:102D7000680EE66E0F0EE66EB6EC1EF0E552E552FA
:102D8000E552F2D70201146B196B1A6B1B6B6D982D
:102D9000040E0B6F040E0C6F016B006BE552E552D5
:102DA000E7CFD9FF1200D9CFE6FFE1CFD9FFE65236
:102DB000A19A0201000507E16DBA05D0686A698031
:102DC0006988020E006F6850040B0FE06950040B15
:102DD0000CE0020EE66E680EE66E0F0EE66EB6ECC6
:102DE0001EF0E552E552E552E5D86DB29FD068502D
:102DF000010B1BE06950010B18E083DF0201040E98
:102E0000006F0401100E026F040E036F080E016FB5
:102E1000006B8C0E0013E66A680EE66E0F0EE66E0F
:102E2000B6EC1EF0E552E552E5526850100B0FE08B
:102E30006950100B0CE0A2D8040EE66E680EE66E28
:102E40000F0EE66EB6EC1EF0E552E552E552685004
:102E5000400B1DE06950400B1AE0010EE66EE66A79
:102E6000000EE66EE66A020EE66EE66AC9EC11F046
:102E7000006E060EE15E0050060EE66E680EE66E0F
:102E80000F0EE66EB6EC1EF0E552E552E5526850C4
:102E9000200B04E06950200B01E04DD86850020B74
:102EA00012E06950020B0FE0010EE66EE66A000EBA
:102EB000E66EE66AE668E668C9EC11F0006E060E9A
:102EC000E15E00506A6A040E0201005D01E22ED04C
:102ED00069A62CD0DF6A040EDF5C28E268A625D044
:102EE0006CCF22F2030EE66E680EE66E0F0EE66EF3
:102EF000B6EC1EF0E552E552E552780E02012215BD
:102F000002E177D810D0000EE66EE66A220EE66E79
:102F1000020EE66E010EE66EE66AC9EC11F0006E76
:102F2000060EE15E0050DF2AD6D700D0E552E5520A
:102F3000E7CFD9FF120070A015D003C2E9FF04C289
:102F4000EAFFEF5080080DE10BC2E9FF0CC2EAFF77
:102F5000EF50840806E103C2E9FF04C2EAFF8C0EC9
:102F6000EF6E7090050EE66E680EE66E0F0EE66E62
:102F7000B6EC1EF0E552E552E55212006984040EEB
:102F8000E66E680EE66E0F0EE66EB6EC1EF0E552CB
:102F9000E552E5526D82000EE66EE66AE66EE66A7E
:102FA000040EE66EE66AC9EC11F0006E060EE15EF4
:102FB000005012006D92000EE66EE66AE66EE66A5A
:102FC000030EE66EE66AC9EC11F0006E060EE15ED5
:102FD0000050699468A40CD0020EE66E680EE66E8E
:102FE0000F0EE66EB6EC1EF0E552E552E552F2D752
:102FF0001200FD0E020122151FE17E0E2215E8408F
:103000007F0B040DF3CF03F2F4CF04F2000E03277D
:10301000040E042303C205F204C206F203C2E9FF50
:1030200004C2EAFFEF503C0BE842E8420D0802E11F
:1030300009D801D02AD805D0FD0E2215040801E1D7
:103040002DD812000BC2E9FF0CC2EAFFEF50800B33
:1030500005E00BC2E9FF0CC2EAFFEF6A02010F6B49
:10306000106B156B166B146B06D9000EE66EE66AD4
:10307000E66EE66A170EE66EE66AC9EC11F0006EBF
:10308000060EE15E005027EF1BF0020E0201105DFC
:1030900003E187EC1CF001D04DD81200D9CFE6FF38
:1030A000E1CFD9FFE6520BC2E9FF0CC2EAFFEF50B5
:1030B000400B01E0010EDF6E080E0201005D0AE127
:1030C00012C46EFF6E50000803E2100E006F02D0B3
:1030D000040E006F100528E10BC2E9FF0CC2EAFFE5
:1030E000020EE926000EEA22180EEE6E040EED6EB8
:1030F00080DB020E02010F5D07E10BC2E9FF0CC28B
:10310000EAFF840EEF6E0FD0DF5007E10BC2E9FF3C
:103110000CC2EAFFC80EEF6E06D00BC2E9FF0CC26C
:10312000EAFF880EEF6E01D005D8E552E552E7CFF1
:10313000D9FF1200D9CFE6FFE1CFD9FF030EE12678
:10314000020E0201105D4AE16D50100B47E003C210
:10315000E9FF04C2EAFFEE52EF50006E016A080E6A
:10316000001801E101503AE103C2E9FF04C2EAFF9D
:10317000EF503C0BE842E8420D0830E105C2E9FFA0
:1031800006C2EAFFEF50800B29E105C2E9FF06C243
:10319000EAFF020EE926000EEA22100EEE6E040E81
:1031A000ED6EDF6ADF50006E016A080E005C000EF3
:1031B000015813E2DF50EA6A180FE96E040EEA22A2
:1031C000EF50E66EDF50EA6A100FE96E040EEA2255
:1031D000E552E750EF6EDF2AE5D731D0106B05C21C
:1031E000E9FF06C2EAFFEE52080EEF6E05C2E9FFE4
:1031F00006C2EAFF020EE926000EEA22100EEE6E6B
:10320000040EED6E05C2E9FF06C2EAFF8C0EEF6EFA
:103210000BC2E9FF0CC2EAFFEF6A000E0B19006E49
:103220000CC201F0010E00C0DBFF020E01C0DBFF8B
:10323000010EDBCFE9FF020EDBCFEAFFEF6A0201EE
:1032400019AF0FD01C511D111E1109E007D01EC26D
:10325000FBFF1DC2FAFF02011C51F96EF8DF0201EB
:10326000199F030EE15C02E2E16AE552E16EE5526C
:10327000E7CFD9FF120004011051600BE842E84289
:10328000E842E842E842000901E058D011510C0A36
:1032900054E00B0A43E00C0A35E0010A26E00B0A71
:1032A00022E0020A20E0030A1CE0080A10E0010AFA
:1032B0000CE00F0A08E0030A01E03FD00201148F7E
:1032C000080E006F3BD0BBD839D0B5DB37D0020138
:1032D000010E116F020E126F1481010E156F148F03
:1032E0002DD054D92BD02BD829D014510201116FD5
:1032F000126B020E1127020E12231481010E156F9C
:10330000148F1CD00201148F04011451EA6A020FB9
:10331000E96E020EEA2212C4EFFF10D0000EE66E34
:10332000E66AE66EE66A160EE66EE66AC9EC11F02B
:10333000006E060EE15E005001D000D01200D9CF21
:10334000E6FFE1CFD9FF040EE1260401120510E1EA
:1033500010511F0B00090CE10201148F030E040130
:10336000115D04E10201010E216F02D00201216B07
:10337000040112515AE110511F0B020856E1145179
:103380000F0B000952E00201148F040114BF10D08A
:1033900014510F0BE96EEA6AD890E936EA36070E47
:1033A000E926020EEA22EECFDEFFEDCFDDFF0FD0E1
:1033B00014510F0BE96EEA6AD890E936EA360B0E23
:1033C000E926020EEA22EECFDEFFEDCFDDFF030E8F
:1033D000115D07E1DECFE9FFDDCFEAFF840EEF6E7E
:1033E00024D014510F0B016A700F006E0F0E0122D2
:1033F000020E00C0DBFF030E01C0DBFF020EDBCFBD
:10340000E9FF030EDBCFEAFFEE90ED5214AF07D0D9
:10341000DECFE9FFDDCFEAFF400EEF6E06D0DECF54
:10342000E9FFDDCFEAFFC80EEF6E040EE15C02E2B9
:10343000E16AE552E16EE552E7CFD9FF1200800E56
:103440000401105D01E0A1D00201C00E146F04015F
:103450001351030A56E0010A10E0030A03E00201D7
:10346000146B93D002012A0E116F6C0E126F000EB6
:10347000136F120E156F166B88D0CC0E006E6C0E8B
:10348000016E000E026E12C403F0046A056A030E98
:10349000266E276A286A03C021F004C022F005C006
:1034A00023F077EC2EF01EC003F01FC004F020C004
:1034B00005F000500324F36E01500420F46E025016
:1034C0000520F86EF4CFF7FFF3CFF6FF0900F5CF34
:1034D00011F20900F5CF12F20800F5CF13F211C274
:1034E000F6FF12C2F7FF13C2F8FF020EF626000E17
:1034F000F722F8220900F5CF15F20A00F5CF16F2EF
:1035000044D0030E125D3EE2CF0E006E6C0E016ED3
:10351000000E026E12C403F0046A056A030E266EE2
:10352000276A286A03C021F004C022F005C023F0F6
:1035300077EC2EF01EC003F01FC004F020C005F091
:1035400000500324F36E01500420F46E0250052055
:10355000F86EF4CFF7FFF3CFF6FF0900F5CF11F2C5
:103560000900F5CF12F20800F5CF13F211C2F6FFF1
:1035700012C2F7FF13C2F8FF0800F5500201156FE1
:10358000166B02D00201146B00D01200D9CFE6FFF7
:10359000E1CFD9FF020EE1260401186B196B10511F
:1035A0001F0B020A12E0030A0DE0010A01E03BD002
:1035B0000201148F040118810201210502E10401B6
:1035C000188331D00201148F2ED00201148F040110
:1035D00014BF10D014510F0BE96EEA6AD890E93687
:1035E000EA36070EE926020EEA22EECFDEFFEDCF25
:1035F000DDFF0FD014510F0BE96EEA6AD890E9365F
:10360000EA360B0EE926020EEA22EECFDEFFEDCF00
:10361000DDFFDECFE9FFDDCFEAFFEF50040B02E074
:10362000010E186F00D0020114AF07D0180E116FF1
:10363000040E126F1481020E156F020EE15C02E29D
:10364000E16AE552E16EE552E7CFD9FF12006D98CD
:10365000020114BF4AD019AF28D0020E106F0BC25E
:10366000E9FF0CC2EAFFEE52EF6A0BC2E9FF0CC29F
:10367000EAFFC80EEF6E05C2E9FF06C2EAFFEE528E
:10368000080EEF6E05C2E9FF06C2EAFF020EE92648
:10369000000EEA22180EEE6E040EED6E05C2E9FF72
:1036A00006C2EAFFC80EEF6E1FD005C2E9FF06C2D0
:1036B000EAFFEE52080EEF6E05C2E9FF06C2EAFF0E
:1036C000020EE926000EEA22100EEE6E040EED6EDA
:1036D00005C2E9FF06C2EAFF8C0EEF6E0BC2E9FFDE
:1036E0000CC2EAFF840EEF6E83D019BF81D00401B3
:1036F00010AF56D0020115510401165D020116519A
:103700000401175904E216C415F217C416F271D851
:103710000201010E106F05C2E9FF06C2EAFFEE5278
:10372000080EEF6E05C2E9FF06C2EAFF020EE926A7
:10373000000EEA22100EEE6E040EED6E05C2E9FFD9
:1037400006C2EAFF800EEF6E03C2E9FF04C2EAFF81
:10375000EE52080EEF6E03C2E9FF04C2EAFF020E4A
:10376000E926000EEA22100EEE6E040EED6E03C284
:10377000E9FF04C2EAFF800EEF6E0BC2E9FF0CC244
:10378000EAFF020EE926000EEA22180EEE6E040E83
:10379000ED6E0BC2E9FF0CC2EAFFC80EEF6E28D037
:1037A0000201020E106F0BC2E9FF0CC2EAFFEE52DB
:1037B000EF6A0BC2E9FF0CC2EAFFC80EEF6E05C24A
:1037C000E9FF06C2EAFFEE52080EEF6E05C2E9FFFE
:1037D00006C2EAFF020EE926000EEA22180EEE6E7D
:1037E000040EED6E05C2E9FF06C2EAFFC80EEF6ED9
:1037F0001200D9CFE6FFE1CFD9FF020EE126020188
:10380000080E155D000E16590EE215C2DEFF16C237
:10381000DDFF0F5103E1010E0F6F04D00F0502E130
:10382000020E0F6F03D0080EDE6EDD6A0BC2E9FFD9
:103830000CC2EAFFEF920BC2E9FF0CC2EAFFEF9065
:103840000BC2E9FF0CC2EAFF010EDB50EF120BC204
:10385000E9FF0CC2EAFFEE52DFCFEFFF000EDB50B4
:10386000155F010EDB50165B180E1F6F040E206FE4
:1038700014B124D0D9CFE9FFDACFEAFFEE50ED1032
:103880001CE011C2F6FF112B12C2F7FF000E12232B
:1038900013C2F8FF13230800F550E66E1FC2E9FFBC
:1038A00020C2EAFF1F2B000E2023E552E750EF6EE7
:1038B000DF06010E01E2DB06DDD71FD0D9CFE9FF1D
:1038C000DACFEAFFEE50ED1018E011C2E9FF12C2A4
:1038D000EAFF112B000E1223EF50E66E1FC2E9FF24
:1038E00020C2EAFF1F2B000E2023E552E750EF6EA7
:1038F000DF06010E01E2DB06E1D7020EE15C02E227
:10390000E16AE552E16EE552E7CFD9FF1200D9CF67
:10391000E6FFE1CFD9FF020EE12603C2E9FF04C2B0
:10392000EAFFEE52EFCFDFFFDFCF00F000500201E1
:103930001A5D000E1B5903E21AC2DFFF09D0DF50E7
:10394000006E016A00501A5D1A6F01501B591B6FFF
:10395000010EDB6ADF50F36E010EDBCFF4FFF35094
:10396000F45C16E2010EDB50EA6A180FE96E040EF1
:10397000EA22EF50E66E17C2E9FF18C2EAFF172BE2
:10398000000E1823E552E750EF6E010EDB2AE2D756
:10399000000ED8801A55000E1B5528E205C2E9FF1B
:1039A00006C2EAFFEE52080EEF6E05C2E9FF06C23C
:1039B000EAFF020EE926000EEA22180EEE6E040E51
:1039C000ED6E03C2E9FF04C2EAFFEF50400B07E1CE
:1039D00005C2E9FF06C2EAFFC80EEF6E06D005C2B7
:1039E000E9FF06C2EAFF880EEF6E1BD005C2E9FFB1
:1039F00006C2EAFF020EE926000EEA22100EEE6E63
:103A0000040EED6E1C511D111E1109E007D01EC2DF
:103A1000FBFF1DC2FAFF02011C51F96EF8DF020123
:103A2000199F020EE15C02E2E16AE552E16EE552A5
:103A3000E7CFD9FF12000201148F000EE66EE66A8E
:103A4000E66A710EE66E0F0EE66EAEEC34F0006EB6
:103A5000050EE15E0050010EE66EE66AE66A020EB1
:103A6000E66E020EE66EAEEC34F0006E050EE15E20
:103A7000005012C401F20401125104E10201100EBF
:103A8000006F11D00201200E006F000EE66EE66A94
:103A9000E66EE66A150EE66EE66AC9EC11F0006E97
:103AA000060EE15E00501200D9CFE6FFE1CFD9FF4C
:103AB000020EE126000EDE6E040EDD6EFD0EDB5002
:103AC000040DF3CF02F0FE0EDB50080DF35002247C
:103AD000006E016A020E0F0B05E0D8900132003231
:103AE000E806FBE1D89000360136D8900036013662
:103AF000D9CFE9FFDACFEAFF0050EE260150ED22E0
:103B0000DECFE9FFDDCFEAFFEF9EFD0EDB500FE1D8
:103B1000FE0EEA6ADB34FE0BEA36E96E070EE92692
:103B2000020EEA22DECFEEFFDDCFEDFF0ED0FE0E5D
:103B3000EA6ADB34FE0BEA36E96E0B0EE926020E6A
:103B4000EA22DECFEEFFDDCFEDFFDECFE9FFDDCFF6
:103B5000EAFFEF8C020EE15C02E2E16AE552E16EFF
:103B6000E552E7CFD9FF1200D9CFE6FFE1CFD9FF69
:103B7000020EE126FE0EDB50016A700F006E0F0E82
:103B8000012200C0DEFF01C0DDFFDECFE9FFDDCF97
:103B9000EAFFFD0EDBCFEFFFDBA407D0E66AFE0EE7
:103BA000DBCFE6FF81DFE552E552FD0EDBA208D058
:103BB000010EE66EFE0EDBCFE6FF76DFE552E55244
:103BC000020EE15C02E2E16AE552E16EE552E7CF06
:103BD000D9FF1200D9CFE6FFE1CFD9FF020EE126CF
:103BE000FE0EDB5020E105C2E9FF06C2EAFFEE52FD
:103BF000080EEF6E05C2E9FF06C2EAFF020EE926D3
:103C0000000EEA22100EEE6E040EED6E05C2E9FF04
:103C100006C2EAFF8C0EEF6E0BC2E9FF0CC2EAFF90
:103C2000840EEF6E1DD0FD0EDBCFE6FFFE0EDB50E7
:103C3000E824E552E724040DF3CF00F0F4CF01F0BF
:103C4000000E0026040E012200C0DEFF01C0DDFFD1
:103C5000840E006EDECFE9FFDDCFEAFF0050EF12E9
:103C6000020EE15C02E2E16AE552E16EE552E7CF65
:103C7000D9FF1200D9CFE6FFE1CFD9FF020EE1262E
:103C8000FD0EDB500FE0FE0EEA6ADB34FE0BEA3677
:103C9000E96E0B0EE926020EEA22EECFDEFFEDCF33
:103CA000DDFF0ED0FE0EEA6ADB34FE0BEA36E96E6B
:103CB000070EE926020EEA22EECFDEFFEDCFDDFF92
:103CC000DECFE9FFDDCFEAFFEF7CDECFE9FFDDCF1E
:103CD000EAFF020EE926000EEA22FB0EDBCFEEFF22
:103CE000FC0EDBCFEDFFDECFE9FFDDCFEAFFEE52CA
:103CF000FA0EDBCFEFFF400E006EDECFE9FFDDCF27
:103D0000EAFF0050EF16880E006EDECFE9FFDDCF30
:103D1000EAFF0050EF12FD0EDB500BE0FE0EEA6AE8
:103D2000DB34FE0BEA36E96E0B0EE926020EEA22C0
:103D30000AD0FE0EEA6ADB34FE0BEA36E96E070EA5
:103D4000E926020EEA22DECF00F0DDCF01F000C04E
:103D5000F3FF01C0F4FF020EE15C03E200D0E16A70
:103D6000E552E16EE552E7CFD9FF1200D9CFE6FF69
:103D7000E1CFD9FF010EF36EFC0EDB5004E0D890CA
:103D8000F336E806FCE1F350E81C006EFD0EDBCFD5
:103D9000E9FFFE0EDBCFEAFF0050EF16E552E7CF5A
:103DA000D9FF120005D06D6A696A0201006B00D06C
:103DB00012000201005111E16D6A696A6DB602D00C
:103DC0006D86FCD70201010E006F140E6F6ED08E4F
:0C3DD0003B0E696EA28AA08AF28E1200DF
:043DDC00D08EF28A09
:103DE000F184D58ED59CD59AD586F70ED76E520E16
:103DF000D66EF294070ECA6E9F929D82F28CF28E5E
:103E00001200280EE66EA6EC35F0E5529EEC39F075
:103E1000000901E0FBD7010EE66EE6EC38F0E55252
:103E20009EEC39F0000901E0FBD70C0EE66EE6ECE3
:103E300038F0E5529EEC39F0000901E0FBD7E66A64
:103E40006FEC38F0E5529EEC39F0000901E0FBD749
:103E50008E0EE66E740EE66E000EE66E09EC38F01D
:103E6000E552E552E5529EEC39F0000901E0FBD73E
:103E7000400EE66E6FEC38F0E5529EEC39F000092A
:103E800001E0FBD78E0EE66E740EE66E000EE66E57
:103E900009EC38F0E552E552E5521200086A400E8E
:103EA000096E9C0E0A6E450E0B6E0CC126F00DC1FC
:103EB00027F00EC128F00FC129F008C121F009C177
:103EC00022F00AC123F00BC124F0E4EC2DF021C054
:103ED0000CF022C00DF023C00EF024C00FF00CC077
:103EE00026F00DC027F00EC028F00FC029F008C042
:103EF00021F009C022F00AC023F00BC024F091EC9D
:103F00002DF021C004F022C005F023C006F024C02B
:103F100007F0266A276AC80E286E420E296E04C072
:103F200021F005C022F006C023F007C024F0E4EC25
:103F30002DF021C000F022C001F023C002F024C007
:103F400003F08B0EF66E740EF76E000EF86E09001D
:103F5000F5CF18F00800F5CF19F018C022F019C0FD
:103F600023F0CCEC2CF021C014F022C015F023C0BB
:103F700016F024C017F0266A276A800E286E440EB9
:103F8000296E14C021F015C022F016C023F017C00E
:103F900024F0E4EC2DF021C010F022C011F023C079
:103FA00012F024C013F010C026F011C027F012C088
:103FB00028F013C029F000C021F001C022F002C097
:103FC00023F003C024F091EC2DF021C09BF122C01E
:103FD0009CF123C09DF124C09EF104C126F005C1CF
:103FE00027F006C128F007C129F000C121F001C166
:103FF00022F002C123F003C124F0FBEC2CF021C01D
:1040000008F022C009F023C00AF024C00BF0266A91
:10401000276AA00E286E400E296E08C021F009C044
:1040200022F00AC023F00BC024F0E4EC2DF021C0F4
:1040300004F022C005F023C006F024C007F0266A71
:10404000276AC80E286E420E296E04C021F005C0F2
:1040500022F006C023F007C024F0E4EC2DF021C0CC
:1040600000F022C001F023C002F024C003F08B0E48
:10407000F66E740EF76E000EF86E0900F5CF18F0AC
:104080000800F5CF19F018C022F019C023F0CCECCD
:104090002CF021C014F022C015F023C016F024C06B
:1040A00017F014C026F015C027F016C028F017C06E
:1040B00029F004C121F005C122F006C123F007C197
:1040C00024F0E4EC2DF021C010F022C011F023C048
:1040D00012F024C013F0266A276A800E286E440E60
:1040E000296E10C021F011C022F012C023F013C0BD
:1040F00024F0E4EC2DF021C00CF022C00DF023C020
:104100000EF024C00FF00CC026F00DC027F00EC03A
:1041100028F00FC029F000C021F001C022F002C039
:1041200023F003C024F091EC2DF021C097F122C0C0
:1041300098F123C099F124C09AF19BC126F09CC14B
:1041400027F09DC128F09EC129F097C121F098C1A8
:1041500022F099C123F09AC124F0E4EC2DF021C0A3
:1041600004F022C005F023C006F024C007F08B0E37
:10417000F66E740EF76E000EF86E0900F5CF0CF0B7
:104180000800F5CF0DF00CC022F00DC023F0CCECF0
:104190002CF021C008F022C009F023C00AF024C08E
:1041A0000BF008C026F009C027F00AC028F00BC0A9
:1041B00029F004C021F005C022F006C023F007C09A
:1041C00024F0E4EC2DF021C000F022C001F023C067
:1041D00002F024C003F0266A276AC80E286E420E39
:1041E000296E00C021F001C022F002C023F003C0FC
:1041F00024F091EC2DF021C09FF122C0A0F123C04A
:10420000A1F124C0A2F18B0EF66E740EF76E000EB3
:10421000F86E0900F5CF08F00800F5CF09F008C0E6
:1042200022F009C023F0CCEC2CF021C004F022C015
:1042300005F023C006F024C007F0890EF66E740E58
:10424000F76E000EF86E0900F5CF0EF00800F5CFFE
:104250000FF00EC022F00FC023F0CCEC2CF021C0E8
:104260000AF022C00BF023C00CF024C00DF00AC0ED
:1042700026F00BC027F00CC028F00DC029F004C0B8
:1042800021F005C022F006C023F007C024F091EC15
:104290002DF021C000F022C001F023C002F024C0A4
:1042A00003F0266AC80E276EAF0E286E480E296EE0
:1042B00000C021F001C022F002C023F003C024F0AE
:1042C00091EC2DF021C0A3F122C0A4F123C0A5F1EF
:1042D00024C0A6F1120040EF30F0100EE66EF5ECAF
:1042E00025F0E55220C077F121C078F122C079F1A4
:1042F00023C07AF1266A276A200E286E410E296EA5
:1043000077C121F078C122F079C123F07AC124F07D
:1043100091EC2DF021C0A7F122C0A8F123C0A9F192
:1043200024C0AAF11200BADD9388938AD6DF3F0E2B
:104330008B169416700E8A169316F00E8C16951620
:104340000F0E92160B0EC16E8A0EC06E8D0EF66E9B
:10435000740EF76E000EF86E0800F55001E151DDA5
:10436000BADF3CDD880EF66E740EF76E000EF86E46
:104370000800F550010804E1010E0101616F626B54
:1043800012000101965101E0D9DB880EF66E740E21
:10439000F76E000EF86E0800F55001082FE10101DC
:1043A000010E631901E164510AE1010E0101616F1F
:1043B000626B0101656B666B676B686B06D0010110
:1043C000652B000E662367236823650EE96E010ED8
:1043D000EA6E01016951EE5C01016A51EE5801017A
:1043E0006B51EE5801016C51EE5808E30101616B0D
:1043F000626B0101656B666B676B686B0B0E01018D
:104400006F1901E1705101E162D20A0E01016F19C9
:1044100001E1705101E145D2090E01016F1901E17D
:10442000705101E133D2080E01016F1901E17051A1
:1044300001E11FD2070E01016F1901E1705101E185
:104440005DD1060E01016F1901E1705101E13FD10B
:10445000050E01016F1901E1705101E1FDD0040E5B
:1044600001016F1901E1705101E1AFD0030E0101AB
:104470006F1901E1705131E0020E01016F1901E184
:10448000705116E0010E01016F1901E1705101E058
:1044900030D28150100B07E08150200B200A01E040
:1044A000010E010804E1020E01016F6F706B23D24F
:1044B00001017B2B000E7C230101D8907C5104E686
:1044C000880E7B5D130E7C5907E301017B6B7C6BCF
:1044D000030E01016F6F706B0ED28150100B08E05C
:1044E0008150200B05E0010E01016F6F706B03D24C
:1044F000880EF66E740EF76E000EF86E0800F5501A
:10450000010809E101016151621105E10B0E010190
:104510006F6F706BF0D18150100B100A01E0010E2B
:10452000010814E18150200B11E0010E0101756FAB
:10453000766B01018F0505E1070E01016F6F706B4E
:1045400004D0040E01016F6F706B39D08150100BD5
:1045500018E08150200B200A01E0010E010811E152
:10456000010E0101756F766B01018F0505E1070EE4
:1045700001016F6F706B04D00A0E01016F6F706BD9
:104580001ED08150100B100A01E0010E010817E146
:104590008150200B200A01E0010E010810E1010EFC
:1045A0000101756F766B01018F0505E1080E0101B0
:1045B0006F6F706B04D0060E01016F6F706B01019D
:1045C000656B666B676B686B96D18150100B100A38
:1045D00001E0010E01081CE10101712B000E7223A4
:1045E0000101745101017219E8AE02D0723507D091
:1045F00071510101735D010172510101745904E2AD
:10460000010E0101716F726B010E0101906F916BD0
:104610008150200B200A01E0010E010814E1010184
:104620007107000E725B0101723504E271510008DE
:10463000000E725504E373C171F174C172F1020E80
:104640000101906F916B010E01016D6F6E6B050E94
:1046500001016F6F706B4FD101017B2B000E7C232A
:104660000101D8907C5104E6300E7B5D750E7C59BB
:1046700007E301017B6B7C6B010E01016F6F706BB7
:104680000101010E901901E191510DE18150100BD2
:104690000AE001017B6B7C6B0101906B916B010E59
:1046A00001016F6F706B0101020E901901E19151D0
:1046B0000DE18150200B0AE001017B6B7C6B010155
:1046C000906B916B010E01016F6F706B14D1080E2E
:1046D0000101711901E1725101E008D00101010EDF
:1046E0008F6F090E01016F6F706B07D001018F6B27
:1046F000090E01016F6F706B00D0FDD0080E010133
:10470000711901E1725101E0A8D08150200B200AFB
:1047100001E0010E010838E1266A276A286A3F0E87
:10472000296E77C121F078C122F079C123F07AC1D6
:1047300024F0FBEC2CF021C077F122C078F123C0EB
:1047400079F124C07AF1CD0E266ECC0E276EC70EFD
:10475000286E420E296E77C121F078C122F079C10E
:1047600023F07AC124F02FEC2FF0010A09E00101B7
:10477000CD0E776FCC0E786FC70E796F420E7A6FC1
:10478000010E0101906F916B8150100B100A01E036
:10479000010E010830E1266A276A286A3F0E296E59
:1047A00077C121F078C122F079C123F07AC124F0D9
:1047B000FAEC2CF021C077F122C078F123C079F116
:1047C00024C07AF1266A276A286A296A77C121F00B
:1047D00078C122F079C123F07AC124F026EC2FF0C1
:1047E000010A05E00101776B786B796B7A6B020E39
:1047F0000101906F916BF29E77C1E6FF78C1E6FFF1
:1048000079C1E6FF7AC1E6FF100EE66E56DA006E59
:10481000050EE15E0050F28E266A276A200E286E91
:10482000410E296E77C121F078C122F079C123F0C1
:104830007AC124F091EC2DF021C0A7F122C0A8F19B
:1048400023C0A9F124C0AAF1010E01016D6F6E6BA6
:10485000050E01016F6F706B0BD001018F6B090E9C
:1048600001016F6F706B04D0010E01016D6F6E6BF3
:1048700042D001018F6B8150100B07E08150200B5B
:1048800004E0050E01016F6F706B35D08150100B85
:1048900007E08150200B04E0050E01016F6F706B83
:1048A0002AD0010E0101756F766B01015F2B000E9E
:1048B00060230101040E5F1901E1605103E1010170
:1048C0005F6B606B050E01016F6F706B14D0010E92
:1048D0000101756F766B010E0101616F626B010161
:1048E000656B666B676B686B050E01016F6F706BB4
:1048F00002D0000000D0200E0201005D03E36D50E5
:10490000020B01E001D001D81200D9CFE6FFE1CFC0
:10491000D9FFE65201019251931102E1000E08D035
:1049200092C1E9FF93C1EAFFEF50800B01E0010E55
:10493000000901E0FED00001FA6B40C500F541C559
:1049400001F505014051FF0A01E1B5D0BC0A49E07B
:10495000010A39E0030A29E0010A1BE0410A0DE0DF
:10496000010A01E0AAD00501010E026F0501020E45
:10497000036F0001040EFA6FA2D012C101F513C13A
:1049800002F514C103F515C104F50001050EFA6F17
:1049900096D019C101F51AC102F51BC103F51CC15E
:1049A00004F50001050EFA6F8AD01EC101F51FC182
:1049B00002F520C103F521C104F522C105F500016E
:1049C000060EFA6F7CD024C101F525C102F526C17F
:1049D00003F527C104F528C105F50001060EFA6F9D
:1049E0006ED019C101F51AC102F51BC103F51CC136
:1049F00004F51EC105F51FC106F520C107F521C14B
:104A000008F522C109F524C10AF525C10BF526C117
:104A10000CF527C10DF528C10EF53EC10FF53FC1BC
:104A200010F540C111F541C112F542C113F543C162
:104A300014F544C115F530C116F531C117F532C171
:104A400018F533C119F534C11AF52AC11BF52BC16C
:104A50001CF52CC11DF52DC11EF52EC11FF546C13B
:104A600020F547C121F548C122F549C123F54AC1C6
:104A700024F54BC125F54CC126F54DC127F546C19E
:104A800028F547C129F548C12AF549C12BF54AC186
:104A90002CF54BC12DF54CC12EF54DC12FF512C192
:104AA00030F513C131F514C132F515C133F50001EC
:104AB000340EFA6F04D0FF0002D0000000D00001D5
:104AC000FA5124E001019451951102E1000E08D041
:104AD00094C1E9FF95C1EAFFEF50800B01E0010EA0
:104AE000000914E1FAC0E6FF000EE66E050EE66E60
:104AF000010EE66E010EE66E3AEC1EF0006E050E3B
:104B0000E15E0050F3CF94F1F4CF95F1400EE66EE4
:104B1000400EE66E050EE66EE66A010EE66E3AECB3
:104B20001EF0006E050EE15E0050F3CF92F1F4CF5F
:104B300093F1E552E552E7CFD9FF12000101AB51E5
:104B4000AC1104E1100EAB6F270EAC6FAB07000E7B
:104B5000AC5B6DA205D0AB51AC1101E18B7C22D0D6
:104B60000201005102E18B8C1DD0000501E11AD039
:104B7000020E005D02E18B8C15D0040E005D01E198
:104B800011D0100E005D06E10101AB51AC1101E145
:104B90008B7C08D0200E005D05E10101AB51AC110A
:104BA00001E18B7C1200D9CFE6FFE1CFD9FFACA2A7
:104BB000FED7FE0EDB50AD6EE552E7CFD9FF1200F7
:104BC000300EE66E50EC3AF0E55200D01200B40E12
:104BD000E66E08EC3AF0E55200D012003C0EE66EAC
:104BE00008EC3AF0E55200D01200D9CFE6FFE1CF51
:104BF000D9FF060EE126DE6ADD6ADECF00F0DDCFEA
:104C000001F0D890015004E6040E005C000E01583B
:104C100025E2FE0EDB50E76E000EDFCF02F0010E44
:104C2000DBCF03F0E7500226000E03220250E66EAF
:104C300034D8E552E66ED950020F006EDACF01F09B
:104C4000DE500024E96EDD500120EA6EE552E750A7
:104C5000EF6EDF2A010E01E3DB2ACFD7020EDBCF96
:104C600000F0030EDBCF01F0040EDBCF02F0050EE7
:104C7000DBCF03F000C020F001C021F002C022F021
:104C800003C023F0060EE15C03E200D0E16AE552C6
:104C9000E16EE552E7CFD9FF1200D9CFE6FFE1CFB1
:104CA000D9FFFE0EDB50A96EA69EA69CA680A8503A
:104CB00000D0E552E7CFD9FF1200D9CFE6FFE1CF10
:104CC000D9FF020EE126DE6ADD6ADECF00F0DDCF1D
:104CD00001F0D890015004E6040E005C000E01586B
:104CE00025E2D950FA0F006EFF0EDA20016EDE5079
:104CF0000024E96EDD500120EA6EEF50E66EFE0EF4
:104D0000DB50E76E000EDFCF02F0010EDBCF03F0C9
:104D1000E7500226000E03220250E66E11D8E5523B
:104D2000E552DF2A010E01E3DB2ACFD7020EE15C58
:104D300002E2E16AE552E16EE552E7CFD9FF1200E7
:104D4000D9CFE6FFE1CFD9FFFE0EDB50A96EFD0EF5
:104D5000DB50A86EA69EA69CA684550EA76EAA0E32
:104D6000A76EA682A6B2FED7A694E552E7CFD9FFDA
:024D700012002F
:0E4D7200F5EC2BF0FB0EDBCFF3FFDB06F3506E
:104D800000090AE043EC2CF0FA0EAEEC2CF0F3E153
:104D9000011CF1E1010E01D0000E24EF2CF0F5EC26
:104DA0002BF03B0EE12402E3E168E652E16E010ED6
:104DB000DB6A020EDB6AF90EDBCFF6FFFA0EDBCF01
:104DC000F7FFFB0EDBCFF8FF0800F550DF6EDF507A
:104DD00002E148EF2BF0250EDF5C02E03BEF2BF009
:104DE000030EDB6A040EDB6A050EDB6A060EDB6A65
:104DF000070EDB6A5DEC2BF02D0EDF5C0CE02B0E5A
:104E0000DF5C09E0200EDF5C06E0230EDF5C03E0E0
:104E1000300EDF5C1AE1DF50300A14E0130A0FE0B5
:104E2000030A0AE00B0A05E0060AE4E1030EDB8050
:104E3000E1D7030EDB82DED7030EDB84DBD7030E64
:104E4000DB86D8D7030EDB88D5D72A0EDF5C1BE1C3
:104E500059EC2BF0A7EC2BF010E0030EDB8022685E
:104E60002368130EDBCF27F0140EDBCF28F013ECF2
:104E700030F0040E20C0DBFF03D0130E90EC2BF0BB
:104E80005DEC2BF00BD0090EDB6AFEEC2BF003E09F
:104E900072EC2CF0FAD7090E90EC2BF0030EDBB07D
:104EA000DB982E0EDF5C1BE15DEC2BF02A0EDF5C45
:104EB0000BE159EC2BF0A7EC2BF003E1130EE2EC25
:104EC0002BF05DEC2BF00BD0090EDB6AFEEC2BF027
:104ED00003E072EC2CF0FAD7090EE2EC2BF0680E2E
:104EE000DF5C07E15DEC2BF0680EDF5C1DE1030E7B
:104EF00018D0740EDF5C17E07A0EDF5C14E0480E09
:104F0000DF5C06E0540EDF5C03E05A0EDF5C02E17A
:104F1000020E07D06C0EDF5C03E06A0EDF5C04E17A
:104F2000010E35EC2CF0C9DBDF506E0A01E17FD3B6
:104F30001E0A01E192D1200A01E18FD13F0A01E16D
:104F400049D11A0A01E146D10D0A01E143D1200AF3
:104F500001E140D13A0A01E13DD1200A01E13AD113
:104F6000260A01E135D10D0A01E132D11A0A01E127
:104F7000D9D0200A4AE0300A1FE0460A0EE0250A8E
:104F800001E083D3D950F90FE96EFF0EDA20EA6E03
:104F9000010EEE5E000EEE5AEE5A43EC2CF0250E9A
:104FA000E66E95DB03E1011C01E169D33FEC2CF0D7
:104FB00001E26BD3DB2A69D3080EDB6A040EDB50F7
:104FC000010806E2040EDB0407EC2CF0DB508BDB5F
:104FD000080EDB5009E0030EDB50010B05E172DB2C
:104FE00001E04DD3080EDB6A64DBEFCFDFFFB7ECE7
:104FF0002CF003E1011C01E142D33FEC2CF001E372
:10500000DB2A60DB01E141D33AD3070EDB50020813
:105010000FE183EC2CF0030E4AEC2CF00E0EEECFD9
:10502000DBFF0F0EEECFDBFF100EEECFDBFF20D04D
:10503000F70EDBCF03F0F80EDBCF04F0020E035EB9
:10504000000E045AF70E03C0DBFFF80E04C0DBFFAE
:1050500003C0E9FF04C0EAFF3AEC2CF0026A0E0E2E
:1050600000C0DBFF0F0E01C0DBFF100E02C0DBFF34
:105070000E0EDBCFE6FF0F0EDBCFE6FF100EDBCF11
:10508000E6FF81EC35F0E552E552E552130E21C002
:10509000DBFF140E22C0DBFF060EDB5005E0130E13
:1050A0007EEC2CF001E26ADBA2EC2CF002E2130EA3
:1050B00037DB65EC2CF006E0040E7EEC2CF002E20F
:1050C000050E2EDB030EDBB005D0FCDA01E0D7D2F3
:1050D000080EDB6A090EDB6A0E0EDBCFF6FF0F0E41
:1050E000DBCFF7FF100EDBCFF8FF0800F550DF6EC7
:1050F000DF5014E0A8EC2CF011E2B7EC2CF003E147
:10510000011C01E1BCD2BBDB01E3DB2A090EDB2A77
:10511000D9500E0FE96E000ECBDBE7D7D3DA01E1F1
:10512000B4D2ADD2C6DA110EEECFDBFF120EEDCF48
:10513000DBFF110EDBCFE6FF120EDBCFE6FF42EC0A
:1051400035F0E552E552130EF3CFDBFF140EF4CF2A
:10515000DBFF060EDB5004E0130ED0DB01E20EDBBA
:10516000A2EC2CF002E2130EDBDAAFDB05E0040E5A
:10517000C5DB02E2050ED4DA030EDBB005D0A2DAFD
:1051800001E07DD2080EDB6A090EDB6A110EDBCF6F
:10519000E9FF120EDBCFEAFFEFCFDFFFDF5014E0B5
:1051A000D7DB12E2E4DB03E1011C01E168D267DB3B
:1051B00001E3DB2A090EDB2A110EDB2ADBCFE9FF34
:1051C000120EE8E3DB2AE6D77DDA01E15ED257D2A0
:1051D000030EDB8E070EDB0410E195DB040E5ADBB9
:1051E0000A0EEECFDBFF0B0EEECFDBFF0C0EEECF89
:1051F000DBFF0D0EEECFDBFF6CD0070EDB5003089C
:105200002CE1030EDBAE0DD0B2DA020E76DAEFCF70
:1052100000F0016A026A036A00AE39D001680268D0
:1052200035D0F70EDBCF01F0F80EDBCF02F0020E27
:10523000015E000E025AF70E01C0DBFFF80E02C03D
:10524000DBFF01C0E9FF02C0EAFFEFCF00F00A0E6A
:1052500000C0DBFF0B0EDB6A38D0070EDB50020804
:1052600009E1030EDBAE04D059DB02AE10D00ED044
:1052700055DB0DD0030EDBAE12D079DA020E3DDA2B
:10528000F9DA026A036A01AE02D002680368E2DA60
:105290000C0E02C0DBFF0D0E03C0DBFF1AD0F70EB1
:1052A000DBCF02F0F80EDBCF03F0020E025E000E41
:1052B000035AF70E02C0DBFFF80E03C0DBFF02C08B
:1052C000E9FF03C0EAFFD6DAC5DA0C0EDB6A0D0E81
:1052D000DB6A060EDB5005E1010EF36E050EF3CF1F
:1052E000DBFF150EDB6A160EDB6AD950370F006E36
:1052F000000EDA20016E390E00C0DBFF3A0E01C04D
:10530000DBFF380EDB6A080EDB6A0A0EAEDADF500E
:10531000780A12E0200A10E0280A0CE0200A0AE0CD
:105320003F0A06E00D0A02E0200A08E1020E05D05D
:10533000080E03D0080EDF26100E97DA030EDBBE30
:1053400002D0DB92DB94DB50800B24E08ADAD89029
:10535000030EEB50000A08E6000EEE5C000EEE585D
:10536000000EEE58000EEE5815E213DA2568266896
:1053700027682868D1EC37F00A0E1CC0DBFF0B0E43
:105380001DC0DBFF0C0E1EC0DBFF0D0E1FC0DBFFC0
:105390002D0E08D0030EDBA202D02B0E03D0DBA40F
:1053A00008D0200EF36E170EF3CFDBFF150EDB2AAD
:1053B00002D0170EDB6A050EDB5003E1B7D901E11D
:1053C00089D0B60E006E740E016E000E026E070ECE
:1053D000DBCF03F0046A056A066A03C025F004C047
:1053E00026F005C027F006C028F0D3D934EC39F0F8
:1053F00000501C24F36E01501D20F46E02501E203C
:10540000F86EF4CFF7FFF3CFF6FF0800090EF5CFE3
:10541000DBFF580EDF5C0FE1610EF36E090E7BD9E6
:105420000AE3200E006E090EDBCFE7FF0050E75EB7
:10543000090EE7CFDBFF070EDBCF00F0016A026A3F
:10544000036A0FDA00C025F001C026F002C027F081
:1054500003C028F0EECF20F0EECF21F0EECF22F007
:10546000EFCF23F034EC39F023C0EDFF22C0EDFF85
:1054700021C0EDFF20C0EFFF390EDBCFE9FFDB06D7
:105480003A0EDBCFEAFF01E2DB06090EDBCFEFFFCE
:10549000150EDB2A4BD995E1030EDBA61DD06F0E4E
:1054A000DF5C06E1C1D918E3150EDB285BDA14D006
:1054B000780EDF5C09E0580EDF5C06E0620EDF5C10
:1054C00003E0420EDF5C08E1020EF36E160EF3CF2E
:1054D000DBFF02D0150EDB6A030EDB50100B0EE073
:1054E000040EDBCF00F0050EDB50D880005406E23E
:1054F000060EDB5003E1040EDB5034DA95D90AE2E4
:10550000050EDBCFE7FF150EDB50E75E050EE7CF9C
:10551000DBFF02D0050EDB6A040EDBCF00F0160EB7
:1055200045D9D880005414E2160EDBCFE6FF150EE5
:10553000DBCFE6FF040EDBCFE6FF050EDB50E552C6
:10554000E75CE552D880E754E552D880E7545FD94C
:10555000030EDB50010B0BE1080EDB5008E0B2D864
:1055600001E08DD0080EDB50BED8080EDB6A170EA6
:10557000DB5007E088D9170EF1D903E1011C01E1E6
:105580007ED0160EDB5016E07ED9300EE66E9FD828
:1055900002E1011C74E077D9DFCFE6FF11EC37F0B0
:1055A000E552E552E552F4CF01F00001F31C02E1AF
:1055B000011C65E0050EDBCF00F0160EDB50D88035
:1055C000005409E2050EDBCFE7FF160EDB50E75E65
:1055D000050EE7CFDBFF300EE66E050ECBD94FE1AF
:1055E000390EDB2ADBCFE9FF3A0E01E3DB2ADBCF02
:1055F000EAFF090EEFCFDBFFDB500EE044D9090EC6
:10560000ADD902E1011C3BE0390EDB2ADBCFE9FF1B
:105610003A0EEDE3DB2AEBD755D831E1160EDBCF9E
:10562000E6FF080EC3D8E552E7245DD82ED0070E5A
:10563000DB50030A1CE0010A14E0030A07E07BD9EF
:10564000DBCFEEFF020EDBCFEDFF1FD0F5D8056AF2
:1056500003AE02D0046805682CD8BCD805C0EEFFA4
:1056600014D0EAD803BE046824D8B4D80ED063D9C5
:10567000DBCFEFFF0AD07BD905E1011C03E1F36822
:10568000F46810D0FCD801E3DB2A79D9E4EF26F0E6
:10569000010EDBCF00F0020EDBCF01F000C0F3FF04
:1056A00001C0F4FF3B0EE15C02E2E16AE552E16E0B
:1056B000CBD029D9020E4AEF2CF061D90800F55061
:1056C000DF6E1200200EE66E080EBAEF2CF011EC21
:1056D00037F0E552E552E552F3CF00F0F4CF01F098
:1056E0000001F31C1200006E016AD950010F4DD960
:1056F0000050EE260150ED221200045E000E055A05
:10570000F70E04C0DBFFF80E05C0DBFF04C0E9FFA5
:1057100005C0EAFF1200DBCFF4FFF350F45C120087
:10572000DB50E76E040EE7CFDBFF12000A0EDBCF83
:1057300000F00B0EDBCF01F00C0EDBCF02F00D0EF4
:10574000DBCF03F000500110021003101200130E03
:10575000EECFDBFF140EEDCFDBFF130EDBCF00F03F
:10576000140EDBCF01F00001800E01141200F70EC1
:10577000DBCF04F0F80EDBCF05F01200050EDB5096
:10578000E66ED950130F01D9E552E750EE6EED6A7F
:1057900012000A0EDBCF20F00B0EDBCF21F00C0E37
:1057A000DBCF22F00D0EDBCF23F01200DBCFE6FFC4
:1057B000150EDBCFE6FF050EDB50E552E724E55280
:1057C000E7241200DB50CED8010EF36E060EF3CFA5
:1057D000DBFF1200EE50EFCFEAFFE96E02C0EEFFF2
:1057E00003C0EEFF04C0EEFF1200D9CFE6FFDACF10
:1057F000E6FFE1CFD9FFE2CFDAFF1200DFCFE6FF0D
:10580000E66ABFEC37F0E552E552F3501200E76E5E
:10581000080EE7CFDBFF1200EECF00F0EECF01F075
:10582000EFCF02F0036A1200050EDBCF00F0150E79
:10583000DB50D88000541200010EDBCF02F0020EC4
:10584000DBCF03F0046A1200E552E5CFDAFFE7CFC1
:10585000D9FF12000A0E00C0DBFF0B0E01C0DBFFF8
:105860001200D9500A0FC5EF2CF0F36E070EF3CFDC
:10587000DBFF1200EECF00F0EFCF01F01200010EBF
:10588000DB2A020E1200FC0EDBCFE6FFFD0EDBCFA3
:10589000E6FF1200005E000E015AF70E00C0DBFFAB
:1058A000F80E01C0DBFF00C0E9FF01C0EAFF1200F3
:1058B000DA20EA6EEF2AEECFF6FF000EEF22EECFEF
:1058C000F7FFEF22EECFF8FF1200040EDBCFE6FF6A
:1058D000130EDB50E552E75C9ADFDB5004DF060E67
:1058E000DB501200090EDB500A0DF350DF24D00FFD
:1058F000E76E090EE7CFDBFF5DEF2BF0DB50F36EB9
:10590000050E8BEF2BF0F70EDBCF00F0F80EDBCFA0
:1059100001F01200DFCFE6FF67EF2BF028DF030E68
:10592000ECDE0CEF2CF0B9EC26F0E552E552E55236
:10593000E55200091200BDDEEE50EFCFEAFFE96E3E
:10594000010E1200130EDB50F36E040E8BEF2BF0E2
:10595000040EDB50F36E090E8BEF2BF0DBCFE6FF6E
:1059600067EF2BF0E76E050EE7CFDBFF12008BDF52
:105970008AEF2CF0DBCFE6FF86DF93EF2CF0D950D7
:10598000F90FE96EFF0E58EF2CF0E96E000EDA20E9
:04599000EA6E1200A9
:0C5994001B9E08D01B9E23AE05D0226C89
:1059A000231EE86A23221B8E23C01DF022C01CF098
:1059B0002D6A2C6A8E0E1E6E1F6AA9EF2FF01B9E99
:1059C0000CD01B9E23AE09D0206C211E221E231E4C
:1059D000E86A2122222223221B8E23C01DF022C02E
:1059E0001CF021C02DF020C02CF09E0E1E6E1F6AF0
:1059F000A9EF2FF0297E1B6AE5EC2FF0FDEC2FF0CC
:105A00001BB68DEF2FF01BA20AD01BAA03D01BBE22
:105A10008DEF2FF01BA499EF2FF096EF2FF01BAA1C
:105A200005D01BAC99EF2FF096EF2FF01BA00AD0FA
:105A30001BA808D01BBE04D01BA402D0A2EF2FF0DD
:105A4000A6EF2FF02C6A1F6A2950245C2B6E10E3FE
:105A500021C02DF022C01CF023C01DF024C02AF06C
:105A600026C021F027C022F028C023F01B3A09D01D
:105A700026C02DF027C01CF028C01DF029C02AF038
:105A80002B6C1B9E1BBC1B8E2AC01EF01BB0D5EFBF
:105A90002FF01A0E2B60D5EF2FF01E6A246A1BA47C
:105AA00008D0216C221E231E241EE86A22222322F3
:105AB00024221BAC08D02D6C1C1E1D1E1E1EE86A65
:105AC0001C221D221E22206A2B5207E0243423327E
:105AD0002232213220322B2EF9D721502D2622506E
:105AE0001C2223501D2224501E2220C02CF01B9E5D
:105AF0001EAE0BD02C6C2D1E1C1E1D1E1E1EE86A19
:105B00002D221C221D221E221B8E1EA006D0D880F4
:105B10001D321C322D322C322A2A2AC01EF0A9EF47
:105B20002FF01B6AE5EC2FF0FDEC2FF01BB68DEF8C
:105B30002FF01BA205D01BBA8DEF2FF094EF2FF0A2
:105B40001BBAA0EF2FF01BA005D01BB88DEF2FF0D4
:105B5000A0EF2FF01BB894EF2FF01F6A7F0E2424C4
:105B60001E6EE86A1F2229501E5EE86A1F5A1A0E2E
:105B70002A6E246A2C6A2D6A1C6A1D6A2650215ED0
:105B80002750225A2850235A000E245A09E726503B
:105B900021262750222228502322000E242201D021
:105BA0002C8AD8902136223623362436D8902C36AB
:105BB0002D361C361D362A2EE1D7235022102110F7
:105BC000D8A42C8AA9EF2FF01B6AE5EC2FF0FDEC8E
:105BD0002FF01BB68DEF2FF01BA205D01BB88DEF59
:105BE0002FF094EF2FF01BAA05D01BB08DEF2FF0F4
:105BF00094EF2FF01BB002D01BA802D0A0EF2FF023
:105C00001F6A295024241E6EE86A1F227E0E1E5E23
:105C1000E86A1F5A2C6A2D6A1C6A1D6A28502302E2
:105C2000F4CF1DF0F3CF1CF027502302F3502D26A4
:105C3000F4501C22000E1D2228502202F3502D2663
:105C4000F4501C22000E1D2226502302F3502C2655
:105C5000F4502D22000E1C221D2227502202F35048
:105C60002C26F4502D22000E1C221D222850210229
:105C7000F3502C26F4502D22000E1C221D222650FB
:105C80002202F4502C26000E2D221C221D22275009
:105C90002102F4502C26000E2D221C221D22A9EFD9
:105CA0002FF01A6A28AE5AEF2EF0276C281EE86AE9
:105CB00028221A1E23AE62EF2EF0226C231EE86A01
:105CC00023221A1EF2EC39F023BE72EF2EF01AAE28
:105CD000000C226C231EE86A23221E6C1F1EE86A39
:105CE0001F22000C1ABE69EF2EF01B88FF0C23C088
:105CF0002DF022C02CF021C02BF021502602F4CF31
:105D00001FF0F3CF1EF022502702F4CF21F0F3CF83
:105D100020F02602F3501F26F4502022E86A2122A8
:105D20002B502702F3501F26F4502022E86A21222C
:105D300023502602F3502026F4502122235027021C
:105D4000226AE86A2222F3502126F45022222B50A4
:105D50002802F3502026F4502122236AE86A2222E6
:105D600023222C502802F3502126F4502222E86AE4
:105D700023222D502802F3502226F4502322000C17
:105D80001B6AE5EC2FF01BB6CAEF2EF01BA20ED05B
:105D90001BB405D07F0E236EFF0E226E1FD0800E27
:105DA000236E226A1BD0236A226A18D01BB0FBD74D
:105DB0008F0E2460EDD77E0E2464F5D78E0E245C02
:105DC00005E0D89023322232242AF8D71BA406D02B
:105DD000226C231EE86A232223AEE5D712001B6A39
:105DE000E5EC2FF01BB6F9EF2EF01BA20FD01BB481
:105DF00007D07F0E236EFF0E226E216E206E25D0FF
:105E0000800E236E01D0236A000EF6D71BB0FBD79D
:105E1000206A9F0E2460EBD77E0E2464F4D79E0E7A
:105E2000245C07E0D8902332223221322032242A07
:105E3000F6D71BA40AD0206C211E221E231EE86A5E
:105E400021222222232223AEDED7120038EC2FF0AB
:105E50001BB6000C1BB0000C1BB4000C010C38EC82
:105E60002FF01BB6000C1BB0000C1BA4000C010C87
:105E70001B6AE5EC2FF0FDEC2FF01BB612001BAEF9
:105E800008D01BA004D01BA802D01B8012001B90BE
:105E900012002950245C0BE12850235C08E12750B4
:105EA000225C05E12650215C02E11B801200D8A093
:105EB00002D01B8E10D0245029C024F0296E23500C
:105EC00028C023F0286E225027C022F0276E2150D0
:105ED00026C021F0266E2950245C10E0FF0F09E057
:105EE0001B901BB403D01BAE1B8412001BAE1B9473
:105EF0001200292AD8902832273226322650215ED5
:105F00002750225A2850235A23BEEAD7D890213648
:105F100022362336242EF8D7C8D77F0E246EFF0EE4
:105F2000236E226E216E12007F0E1BBEFF0E246EAA
:105F300002D07F0E246E800E236E226A216AF3D770
:105F40001BAE04D0800E246E236AF7D7246A236A1E
:105F5000F4D71D501C102D102C10F8E01FBEF0D7E8
:105F60001DBE0CD01E501F10EBE0D8902C362D36E5
:105F70001C361D361E06D8A01F06F2D71F50D4E1CE
:105F80001E28D2E02CAE11D07F0E2C1402E12DA0E1
:105F90000CD02D2AE86A1C221D2207E3D8801D326E
:105FA0001C322D321E2A1E28BFE01E50C9E02DC013
:105FB00021F01CC022F01D34236E1E30246E2332CB
:105FC000249E1BBE248E93EF2FF02336243602E34B
:105FD0001B841B7E06E11B80246A236A226A216AD5
:105FE0001200242803E0D88023321200D8902332F4
:105FF00002E11B8212001B8612002836293602E3BA
:106000001B8C1B7E06E11B88296A286A276A266A80
:106010001200292803E0D88028321200D8902832B4
:10602000EAE11B8A120023C02DF022C02CF022507E
:106030002702F4CF21F0F3CF20F023502802F4CF31
:1060400023F0F3CF22F02702F3502126F45022222E
:10605000E86A23222C502802F3502126F4502222F1
:10606000E86A232228AE39EF30F02C50225E2D5002
:10607000235A2DAE000C2750225E2850235A000CC4
:106080008C94800EE66EE66A010EE66E3DEC38F00A
:10609000E552E552E552040EE66E0B0EE66E10D8A0
:1060A000E552E552E668090EE66E0AD8E552E55279
:1060B000B2D8D5D827D80F0EE66EB5D8E552120063
:1060C000D9CFE6FFE1CFD9FF8C94FE0EDBCFE6FF00
:1060D0000BD8E552FD0EDBCFE6FF06D8E5528C84E7
:1060E000E552E7CFD9FF1200D9CFE6FFE1CFD9FFC4
:1060F000FE0EDBCFE6FFBDEC39F0E552E552E7CF0F
:10610000D9FF1200D9CFE6FFE1CFD9FFE652DF6A0F
:10611000DFCF00F0090EE76E0018E8AE02D0E734DA
:1061200002D0E750005C09E20F0EE66EDFCFE6FF1B
:10613000C7DFE552E552DF2AEBD7E552E552E7CF5C
:10614000D9FF1200D9CFE6FFE1CFD9FFE652FD0E0D
:10615000DBCFE6FF1BD8E552DF6ED950FB0FE96EAF
:10616000FF0EDA20EA6E010EEE1801E1ED5001E1BA
:10617000DF8EDFCFE6FFFE0EDBCFE6FFA1DFE552CD
:10618000E552E552E552E7CFD9FF1200D9CFE6FF3D
:10619000E1CFD9FFE652DF6ADFCFE9FFEA6AE9BE65
:1061A000EA68D890E936EA36D20EE926000EEA22ED
:1061B000EF5023E0DFCFE9FFEA6AE9BEEA68D89052
:1061C000E936EA36D20EE926000EEA22EF50F36EE7
:1061D000FE0EDB50F35C0FE1DFCFE9FFEA6AE9BEB8
:1061E000EA68D890E936EA36D20EE926000EEA22AD
:1061F000EE52EF5004D0DF2ACFD7000E00D0E55288
:10620000E552E7CFD9FF1200E66A0C0EE66E58DFC2
:10621000E552E5521200010EE66E0C0EE66E50DFFE
:10622000E552E5521200D9CFE6FFE1CFD9FFFE0ECD
:10623000DB98DB9ADB9CDB9EDBCFE6FF0A0EE66E8B
:106240003FDFE552E552E552E7CFD9FF1200010EDC
:10625000E66E0F0EE66E34DFE552E5521200E66A96
:106260000F0EE66E2DDFE552E5521200D9CFE6FFA4
:10627000E1CFD9FF0A0EE126D9CFE6FFDACFE6FF5C
:10628000FD0EDBCFE6FFFE0EDBCFE6FF3FEC33F08B
:10629000E552E552E552E552D9CFE6FFDACFE6FF07
:1062A00042EC35F0E552E552050EF3CFDBFF060E6A
:1062B000F4CFDBFF050EDBCF00F0060EDBCF01F0E5
